{
  "contractName": "Authentication",
  "abi": [
    {
      "constant": false,
      "inputs": [],
      "name": "kill",
      "outputs": [],
      "payable": false,
      "stateMutability": "nonpayable",
      "type": "function"
    },
    {
      "constant": true,
      "inputs": [
        {
          "name": "",
          "type": "uint256"
        }
      ],
      "name": "usersById",
      "outputs": [
        {
          "name": "",
          "type": "address"
        }
      ],
      "payable": false,
      "stateMutability": "view",
      "type": "function"
    },
    {
      "constant": true,
      "inputs": [],
      "name": "usersCount",
      "outputs": [
        {
          "name": "",
          "type": "uint256"
        }
      ],
      "payable": false,
      "stateMutability": "view",
      "type": "function"
    },
    {
      "constant": false,
      "inputs": [],
      "name": "renounceOwnership",
      "outputs": [],
      "payable": false,
      "stateMutability": "nonpayable",
      "type": "function"
    },
    {
      "constant": true,
      "inputs": [
        {
          "name": "",
          "type": "uint256"
        }
      ],
      "name": "sellersById",
      "outputs": [
        {
          "name": "",
          "type": "address"
        }
      ],
      "payable": false,
      "stateMutability": "view",
      "type": "function"
    },
    {
      "constant": true,
      "inputs": [],
      "name": "owner",
      "outputs": [
        {
          "name": "",
          "type": "address"
        }
      ],
      "payable": false,
      "stateMutability": "view",
      "type": "function"
    },
    {
      "constant": true,
      "inputs": [],
      "name": "sellersCount",
      "outputs": [
        {
          "name": "",
          "type": "uint256"
        }
      ],
      "payable": false,
      "stateMutability": "view",
      "type": "function"
    },
    {
      "constant": true,
      "inputs": [
        {
          "name": "",
          "type": "address"
        }
      ],
      "name": "users",
      "outputs": [
        {
          "name": "name",
          "type": "bytes32"
        },
        {
          "name": "email",
          "type": "bytes32"
        },
        {
          "name": "phoneNumber",
          "type": "bytes32"
        },
        {
          "name": "profilePicture",
          "type": "string"
        },
        {
          "name": "userType",
          "type": "uint8"
        },
        {
          "name": "userState",
          "type": "uint8"
        },
        {
          "name": "exists",
          "type": "bool"
        }
      ],
      "payable": false,
      "stateMutability": "view",
      "type": "function"
    },
    {
      "constant": false,
      "inputs": [
        {
          "name": "_newOwner",
          "type": "address"
        }
      ],
      "name": "transferOwnership",
      "outputs": [],
      "payable": false,
      "stateMutability": "nonpayable",
      "type": "function"
    },
    {
      "constant": true,
      "inputs": [
        {
          "name": "",
          "type": "address"
        }
      ],
      "name": "pendingWithdraws",
      "outputs": [
        {
          "name": "",
          "type": "uint256"
        }
      ],
      "payable": false,
      "stateMutability": "view",
      "type": "function"
    },
    {
      "inputs": [
        {
          "name": "ecommerceAddress",
          "type": "address"
        }
      ],
      "payable": true,
      "stateMutability": "payable",
      "type": "constructor"
    },
    {
      "payable": true,
      "stateMutability": "payable",
      "type": "fallback"
    },
    {
      "anonymous": false,
      "inputs": [
        {
          "indexed": false,
          "name": "sender",
          "type": "address"
        },
        {
          "indexed": false,
          "name": "value",
          "type": "uint256"
        }
      ],
      "name": "LogDonnationReceived",
      "type": "event"
    },
    {
      "anonymous": false,
      "inputs": [
        {
          "indexed": false,
          "name": "from",
          "type": "address"
        }
      ],
      "name": "LogUserSignUp",
      "type": "event"
    },
    {
      "anonymous": false,
      "inputs": [
        {
          "indexed": false,
          "name": "from",
          "type": "address"
        }
      ],
      "name": "LogUserUpdated",
      "type": "event"
    },
    {
      "anonymous": false,
      "inputs": [
        {
          "indexed": false,
          "name": "userAddress",
          "type": "address"
        },
        {
          "indexed": false,
          "name": "userState",
          "type": "uint8"
        }
      ],
      "name": "LogUpdateUserState",
      "type": "event"
    },
    {
      "anonymous": false,
      "inputs": [
        {
          "indexed": false,
          "name": "userAddress",
          "type": "address"
        },
        {
          "indexed": false,
          "name": "userType",
          "type": "uint8"
        }
      ],
      "name": "LogUpdateUserType",
      "type": "event"
    },
    {
      "anonymous": false,
      "inputs": [
        {
          "indexed": false,
          "name": "message",
          "type": "string"
        },
        {
          "indexed": false,
          "name": "storeAddress",
          "type": "address"
        },
        {
          "indexed": false,
          "name": "seller",
          "type": "address"
        }
      ],
      "name": "LogCreateStore",
      "type": "event"
    },
    {
      "anonymous": false,
      "inputs": [
        {
          "indexed": true,
          "name": "previousOwner",
          "type": "address"
        }
      ],
      "name": "OwnershipRenounced",
      "type": "event"
    },
    {
      "anonymous": false,
      "inputs": [
        {
          "indexed": true,
          "name": "previousOwner",
          "type": "address"
        },
        {
          "indexed": true,
          "name": "newOwner",
          "type": "address"
        }
      ],
      "name": "OwnershipTransferred",
      "type": "event"
    },
    {
      "constant": true,
      "inputs": [],
      "name": "login",
      "outputs": [
        {
          "name": "",
          "type": "bytes32"
        },
        {
          "name": "",
          "type": "bytes32"
        },
        {
          "name": "",
          "type": "bytes32"
        },
        {
          "name": "",
          "type": "string"
        },
        {
          "name": "",
          "type": "uint8"
        },
        {
          "name": "",
          "type": "uint8"
        }
      ],
      "payable": false,
      "stateMutability": "view",
      "type": "function"
    },
    {
      "constant": false,
      "inputs": [
        {
          "name": "_name",
          "type": "string"
        },
        {
          "name": "_email",
          "type": "string"
        },
        {
          "name": "_phoneNumber",
          "type": "string"
        },
        {
          "name": "_profilePicture",
          "type": "string"
        },
        {
          "name": "_userType",
          "type": "uint8"
        }
      ],
      "name": "signup",
      "outputs": [
        {
          "name": "",
          "type": "uint256"
        }
      ],
      "payable": true,
      "stateMutability": "payable",
      "type": "function"
    },
    {
      "constant": false,
      "inputs": [
        {
          "name": "_name",
          "type": "bytes32"
        },
        {
          "name": "_email",
          "type": "bytes32"
        },
        {
          "name": "_phoneNumber",
          "type": "bytes32"
        },
        {
          "name": "_profilePicture",
          "type": "string"
        }
      ],
      "name": "update",
      "outputs": [
        {
          "name": "",
          "type": "bytes32"
        },
        {
          "name": "",
          "type": "bytes32"
        },
        {
          "name": "",
          "type": "bytes32"
        },
        {
          "name": "",
          "type": "string"
        }
      ],
      "payable": true,
      "stateMutability": "payable",
      "type": "function"
    },
    {
      "constant": false,
      "inputs": [
        {
          "name": "_userAddress",
          "type": "address"
        },
        {
          "name": "_userState",
          "type": "uint8"
        }
      ],
      "name": "updateUserState",
      "outputs": [],
      "payable": true,
      "stateMutability": "payable",
      "type": "function"
    },
    {
      "constant": false,
      "inputs": [
        {
          "name": "_userAddress",
          "type": "address"
        },
        {
          "name": "_userType",
          "type": "uint8"
        }
      ],
      "name": "updateUserType",
      "outputs": [],
      "payable": true,
      "stateMutability": "payable",
      "type": "function"
    },
    {
      "constant": false,
      "inputs": [],
      "name": "requestWithdraw",
      "outputs": [
        {
          "name": "",
          "type": "bool"
        }
      ],
      "payable": true,
      "stateMutability": "payable",
      "type": "function"
    },
    {
      "constant": false,
      "inputs": [],
      "name": "withdraw",
      "outputs": [],
      "payable": true,
      "stateMutability": "payable",
      "type": "function"
    },
    {
      "constant": false,
      "inputs": [
        {
          "name": "_name",
          "type": "bytes32"
        },
        {
          "name": "_email",
          "type": "bytes32"
        },
        {
          "name": "_storeImage",
          "type": "bytes32"
        },
        {
          "name": "_arbiter",
          "type": "address"
        }
      ],
      "name": "createStore",
      "outputs": [
        {
          "name": "",
          "type": "bool"
        }
      ],
      "payable": true,
      "stateMutability": "payable",
      "type": "function"
    },
    {
      "constant": true,
      "inputs": [
        {
          "name": "_id",
          "type": "uint256"
        }
      ],
      "name": "getUser",
      "outputs": [
        {
          "name": "",
          "type": "address"
        },
        {
          "name": "",
          "type": "bytes32"
        },
        {
          "name": "",
          "type": "bytes32"
        },
        {
          "name": "",
          "type": "bytes32"
        },
        {
          "name": "",
          "type": "string"
        },
        {
          "name": "",
          "type": "uint8"
        },
        {
          "name": "",
          "type": "uint8"
        }
      ],
      "payable": false,
      "stateMutability": "view",
      "type": "function"
    }
  ],
  "bytecode": "0x60806040526040516020806133bf83398101806040528101908080519060200190929190505050336000806101000a81548173ffffffffffffffffffffffffffffffffffffffff021916908373ffffffffffffffffffffffffffffffffffffffff16021790555080600160006101000a81548173ffffffffffffffffffffffffffffffffffffffff021916908373ffffffffffffffffffffffffffffffffffffffff16021790555050613308806100b76000396000f300608060405260043610610107576000357c0100000000000000000000000000000000000000000000000000000000900463ffffffff1680633ccfd60b1461019557806341c0e1b51461019f578063426b5382146101b65780636ba13a8214610223578063715018a61461024e578063854d0b0c146102655780638da5cb5b146102d25780638dd74474146103295780639ae9711e146103a1578063a87430ba146103cc578063b0467deb146104ea578063b3423eec1461061a578063b34e97e81461063c578063cc5b68b714610723578063e2943c8d146107ba578063f2fde38b146107fd578063f6669f6814610840578063fa14d4811461093e578063fad52b3d14610995575b7f35f0da97044ba850edf0920ccb36ddc81e43169cd025bf93b2ff4e10e96608426000809054906101000a900473ffffffffffffffffffffffffffffffffffffffff1634604051808373ffffffffffffffffffffffffffffffffffffffff1673ffffffffffffffffffffffffffffffffffffffff1681526020018281526020019250505060405180910390a1005b61019d6109d8565b005b3480156101ab57600080fd5b506101b4610b6f565b005b3480156101c257600080fd5b506101e160048036038101908080359060200190929190505050610c6d565b604051808273ffffffffffffffffffffffffffffffffffffffff1673ffffffffffffffffffffffffffffffffffffffff16815260200191505060405180910390f35b34801561022f57600080fd5b50610238610ca0565b6040518082815260200191505060405180910390f35b34801561025a57600080fd5b50610263610ca6565b005b34801561027157600080fd5b5061029060048036038101908080359060200190929190505050610e11565b604051808273ffffffffffffffffffffffffffffffffffffffff1673ffffffffffffffffffffffffffffffffffffffff16815260200191505060405180910390f35b3480156102de57600080fd5b506102e7610e44565b604051808273ffffffffffffffffffffffffffffffffffffffff1673ffffffffffffffffffffffffffffffffffffffff16815260200191505060405180910390f35b610387600480360381019080803560001916906020019092919080356000191690602001909291908035600019169060200190929190803573ffffffffffffffffffffffffffffffffffffffff169060200190929190505050610e69565b604051808215151515815260200191505060405180910390f35b3480156103ad57600080fd5b506103b66114c5565b6040518082815260200191505060405180910390f35b3480156103d857600080fd5b5061040d600480360381019080803573ffffffffffffffffffffffffffffffffffffffff1690602001909291905050506114cb565b604051808860001916600019168152602001876000191660001916815260200186600019166000191681526020018060200185600381111561044b57fe5b60ff16815260200184600181111561045f57fe5b60ff16815260200183151515158152602001828103825286818151815260200191508051906020019080838360005b838110156104a957808201518184015260208101905061048e565b50505050905090810190601f1680156104d65780820380516001836020036101000a031916815260200191505b509850505050505050505060405180910390f35b3480156104f657600080fd5b50610515600480360381019080803590602001909291905050506115cc565b604051808873ffffffffffffffffffffffffffffffffffffffff1673ffffffffffffffffffffffffffffffffffffffff1681526020018760001916600019168152602001866000191660001916815260200185600019166000191681526020018060200184600381111561058557fe5b60ff16815260200183600181111561059957fe5b60ff168152602001828103825285818151815260200191508051906020019080838360005b838110156105d95780820151818401526020810190506105be565b50505050905090810190601f1680156106065780820380516001836020036101000a031916815260200191505b509850505050505050505060405180910390f35b6106226118df565b604051808215151515815260200191505060405180910390f35b34801561064857600080fd5b50610651611a54565b604051808760001916600019168152602001866000191660001916815260200185600019166000191681526020018060200184600381111561068f57fe5b60ff1681526020018360018111156106a357fe5b60ff168152602001828103825285818151815260200191508051906020019080838360005b838110156106e35780820151818401526020810190506106c8565b50505050905090810190601f1680156107105780820380516001836020036101000a031916815260200191505b5097505050505050505060405180910390f35b6107a4600480360381019080803590602001908201803590602001919091929391929390803590602001908201803590602001919091929391929390803590602001908201803590602001919091929391929390803590602001908201803590602001919091929391929390803560ff169060200190929190505050611e70565b6040518082815260200191505060405180910390f35b6107fb600480360381019080803573ffffffffffffffffffffffffffffffffffffffff169060200190929190803560ff16906020019092919050505061241a565b005b34801561080957600080fd5b5061083e600480360381019080803573ffffffffffffffffffffffffffffffffffffffff169060200190929190505050612773565b005b610896600480360381019080803560001916906020019092919080356000191690602001909291908035600019169060200190929190803590602001908201803590602001919091929391929390505050612843565b6040518085600019166000191681526020018460001916600019168152602001836000191660001916815260200180602001828103825283818151815260200191508051906020019080838360005b838110156109005780820151818401526020810190506108e5565b50505050905090810190601f16801561092d5780820380516001836020036101000a031916815260200191505b509550505050505060405180910390f35b34801561094a57600080fd5b5061097f600480360381019080803573ffffffffffffffffffffffffffffffffffffffff169060200190929190505050612df3565b6040518082815260200191505060405180910390f35b6109d6600480360381019080803573ffffffffffffffffffffffffffffffffffffffff169060200190929190803560ff169060200190929190505050612e0b565b005b60008060009054906101000a900473ffffffffffffffffffffffffffffffffffffffff1673ffffffffffffffffffffffffffffffffffffffff163373ffffffffffffffffffffffffffffffffffffffff16141515610a9e576040517f08c379a00000000000000000000000000000000000000000000000000000000081526004018080602001828103825260208152602001807f53656e646572206973206e6f742074686520636f6e7472616374206f776e657281525060200191505060405180910390fd5b600560003373ffffffffffffffffffffffffffffffffffffffff1673ffffffffffffffffffffffffffffffffffffffff1681526020019081526020016000205490506000600560003373ffffffffffffffffffffffffffffffffffffffff1673ffffffffffffffffffffffffffffffffffffffff168152602001908152602001600020819055503373ffffffffffffffffffffffffffffffffffffffff166108fc829081150290604051600060405180830381858888f19350505050158015610b6b573d6000803e3d6000fd5b5050565b6000809054906101000a900473ffffffffffffffffffffffffffffffffffffffff1673ffffffffffffffffffffffffffffffffffffffff163373ffffffffffffffffffffffffffffffffffffffff16141515610c33576040517f08c379a00000000000000000000000000000000000000000000000000000000081526004018080602001828103825260208152602001807f53656e646572206973206e6f742074686520636f6e7472616374206f776e657281525060200191505060405180910390fd5b6000809054906101000a900473ffffffffffffffffffffffffffffffffffffffff1673ffffffffffffffffffffffffffffffffffffffff16ff5b60036020528060005260406000206000915054906101000a900473ffffffffffffffffffffffffffffffffffffffff1681565b60065481565b6000809054906101000a900473ffffffffffffffffffffffffffffffffffffffff1673ffffffffffffffffffffffffffffffffffffffff163373ffffffffffffffffffffffffffffffffffffffff16141515610d6a576040517f08c379a00000000000000000000000000000000000000000000000000000000081526004018080602001828103825260208152602001807f53656e646572206973206e6f742074686520636f6e7472616374206f776e657281525060200191505060405180910390fd5b6000809054906101000a900473ffffffffffffffffffffffffffffffffffffffff1673ffffffffffffffffffffffffffffffffffffffff167ff8df31144d9c2f0f6b59d69b8b98abd5459d07f2742c4df920b25aae33c6482060405160405180910390a260008060006101000a81548173ffffffffffffffffffffffffffffffffffffffff021916908373ffffffffffffffffffffffffffffffffffffffff160217905550565b60046020528060005260406000206000915054906101000a900473ffffffffffffffffffffffffffffffffffffffff1681565b6000809054906101000a900473ffffffffffffffffffffffffffffffffffffffff1681565b60008060016003811115610e7957fe5b600260003373ffffffffffffffffffffffffffffffffffffffff1673ffffffffffffffffffffffffffffffffffffffff16815260200190815260200160002060040160009054906101000a900460ff166003811115610ed457fe5b141515610f49576040517f08c379a00000000000000000000000000000000000000000000000000000000081526004018080602001828103825260168152602001807f55736572206973206e6f7420616e2073656c6c65722e0000000000000000000081525060200191505060405180910390fd5b600180811115610f5557fe5b600260003373ffffffffffffffffffffffffffffffffffffffff1673ffffffffffffffffffffffffffffffffffffffff16815260200190815260200160002060040160019054906101000a900460ff166001811115610fb057fe5b141515611025576040517f08c379a000000000000000000000000000000000000000000000000000000000815260040180806020018281038252601b8152602001807f55736572206e6f74206f6e20417070726f7665642073746174652e000000000081525060200191505060405180910390fd5b856000602060ff161115156110a2576040517f08c379a000000000000000000000000000000000000000000000000000000000815260040180806020018281038252600c8152602001807f496e76616c6964206e616d65000000000000000000000000000000000000000081525060200191505060405180910390fd5b856000600102816000191614151515611123576040517f08c379a000000000000000000000000000000000000000000000000000000000815260040180806020018281038252600d8152602001807f496e76616c696420656d61696c0000000000000000000000000000000000000081525060200191505060405180910390fd5b846002600381111561113157fe5b600260008373ffffffffffffffffffffffffffffffffffffffff1673ffffffffffffffffffffffffffffffffffffffff16815260200190815260200160002060040160009054906101000a900460ff16600381111561118c57fe5b141515611201576040517f08c379a000000000000000000000000000000000000000000000000000000000815260040180806020018281038252601b8152602001807f412073746f7265207265717569726520616e20617262697465722e000000000081525060200191505060405180910390fd5b611209612fbf565b600160009054906101000a900473ffffffffffffffffffffffffffffffffffffffff1673ffffffffffffffffffffffffffffffffffffffff166399a52b638a8a898b336040518663ffffffff167c010000000000000000000000000000000000000000000000000000000002815260040180866000191660001916815260200185600019166000191681526020018473ffffffffffffffffffffffffffffffffffffffff1673ffffffffffffffffffffffffffffffffffffffff16815260200183600019166000191681526020018273ffffffffffffffffffffffffffffffffffffffff1673ffffffffffffffffffffffffffffffffffffffff16815260200195505050505050602060405180830381600087803b15801561132a57600080fd5b505af115801561133e573d6000803e3d6000fd5b505050506040513d602081101561135457600080fd5b8101908080519060200190929190505050935083156114ae576113836001600754612ff690919063ffffffff16565b6007819055503360046000600754815260200190815260200160002060006101000a81548173ffffffffffffffffffffffffffffffffffffffff021916908373ffffffffffffffffffffffffffffffffffffffff1602179055507f6a74237569357dcfba7f9d5700c261001b277e1c408f677d38c2e788c5f9b8db333360405180806020018473ffffffffffffffffffffffffffffffffffffffff1673ffffffffffffffffffffffffffffffffffffffff1681526020018373ffffffffffffffffffffffffffffffffffffffff1673ffffffffffffffffffffffffffffffffffffffff168152602001828103825260118152602001807f4e65772073746f72652063726561746564000000000000000000000000000000815250602001935050505060405180910390a15b6114b6613017565b83945050505050949350505050565b60075481565b6002602052806000526040600020600091509050806000015490806001015490806002015490806003018054600181600116156101000203166002900480601f0160208091040260200160405190810160405280929190818152602001828054600181600116156101000203166002900480156115895780601f1061155e57610100808354040283529160200191611589565b820191906000526020600020905b81548152906001019060200180831161156c57829003601f168201915b5050505050908060040160009054906101000a900460ff16908060040160019054906101000a900460ff16908060040160029054906101000a900460ff16905087565b60008060008060606000806115df613158565b8860006003600083815260200190815260200160002060009054906101000a900473ffffffffffffffffffffffffffffffffffffffff1673ffffffffffffffffffffffffffffffffffffffff16141515156116a2576040517f08c379a00000000000000000000000000000000000000000000000000000000081526004018080602001828103825260198152602001807f55736572204944206973206e6f7420726567697374657265640000000000000081525060200191505060405180910390fd5b60026000600360008d815260200190815260200160002060009054906101000a900473ffffffffffffffffffffffffffffffffffffffff1673ffffffffffffffffffffffffffffffffffffffff1673ffffffffffffffffffffffffffffffffffffffff16815260200190815260200160002060e06040519081016040529081600082015460001916600019168152602001600182015460001916600019168152602001600282015460001916600019168152602001600382018054600181600116156101000203166002900480601f0160208091040260200160405190810160405280929190818152602001828054600181600116156101000203166002900480156117ef5780601f106117c4576101008083540402835291602001916117ef565b820191906000526020600020905b8154815290600101906020018083116117d257829003601f168201915b505050505081526020016004820160009054906101000a900460ff16600381111561181657fe5b600381111561182157fe5b81526020016004820160019054906101000a900460ff16600181111561184357fe5b600181111561184e57fe5b81526020016004820160029054906101000a900460ff1615151515815250509150600360008b815260200190815260200160002060009054906101000a900473ffffffffffffffffffffffffffffffffffffffff16826000015183602001518460400151856060015186608001518760a0015182925098509850985098509850985098505050919395979092949650565b60008060009054906101000a900473ffffffffffffffffffffffffffffffffffffffff1673ffffffffffffffffffffffffffffffffffffffff163373ffffffffffffffffffffffffffffffffffffffff161415156119a5576040517f08c379a00000000000000000000000000000000000000000000000000000000081526004018080602001828103825260208152602001807f53656e646572206973206e6f742074686520636f6e7472616374206f776e657281525060200191505060405180910390fd5b6000341115611a4c57611a0034600560003373ffffffffffffffffffffffffffffffffffffffff1673ffffffffffffffffffffffffffffffffffffffff16815260200190815260200160002054612ff690919063ffffffff16565b600560003373ffffffffffffffffffffffffffffffffffffffff1673ffffffffffffffffffffffffffffffffffffffff1681526020019081526020016000208190555060019050611a51565b600090505b90565b60008060006060600080600260003373ffffffffffffffffffffffffffffffffffffffff1673ffffffffffffffffffffffffffffffffffffffff16815260200190815260200160002060040160029054906101000a900460ff1615611d0b57600260003373ffffffffffffffffffffffffffffffffffffffff1673ffffffffffffffffffffffffffffffffffffffff16815260200190815260200160002060000154600260003373ffffffffffffffffffffffffffffffffffffffff1673ffffffffffffffffffffffffffffffffffffffff16815260200190815260200160002060010154600260003373ffffffffffffffffffffffffffffffffffffffff1673ffffffffffffffffffffffffffffffffffffffff16815260200190815260200160002060020154600260003373ffffffffffffffffffffffffffffffffffffffff1673ffffffffffffffffffffffffffffffffffffffff168152602001908152602001600020600301600260003373ffffffffffffffffffffffffffffffffffffffff1673ffffffffffffffffffffffffffffffffffffffff16815260200190815260200160002060040160009054906101000a900460ff16600260003373ffffffffffffffffffffffffffffffffffffffff1673ffffffffffffffffffffffffffffffffffffffff16815260200190815260200160002060040160019054906101000a900460ff16828054600181600116156101000203166002900480601f016020809104026020016040519081016040528092919081815260200182805460018160011615610100020316600290048015611cf35780601f10611cc857610100808354040283529160200191611cf3565b820191906000526020600020905b815481529060010190602001808311611cd657829003601f168201915b50505050509250955095509550955095509550611e68565b3373ffffffffffffffffffffffffffffffffffffffff166000809054906101000a900473ffffffffffffffffffffffffffffffffffffffff1673ffffffffffffffffffffffffffffffffffffffff161415611e6757611d9e6040805190810160405280600581526020017f4f776e6572000000000000000000000000000000000000000000000000000000815250613033565b611ddc6040805190810160405280600f81526020017f6f776e6572406f776e65722e636f6d0000000000000000000000000000000000815250613033565b611e1a6040805190810160405280600881526020017f3132333435363738000000000000000000000000000000000000000000000000815250613033565b600360016040805190810160405280600a81526020017f6f776e6572496d616765000000000000000000000000000000000000000000008152509190955095509550955095509550611e68565b5b909192939495565b6000611e7a613158565b600260003373ffffffffffffffffffffffffffffffffffffffff1673ffffffffffffffffffffffffffffffffffffffff16815260200190815260200160002060040160029054906101000a900460ff1615611ed8576000915061240c565b611ee0612fbf565b611f1b8b8b8080601f016020809104026020016040519081016040528093929190818152602001838380828437820191505050505050613033565b81600001906000191690816000191681525050611f6989898080601f016020809104026020016040519081016040528093929190818152602001838380828437820191505050505050613033565b81602001906000191690816000191681525050611fb787878080601f016020809104026020016040519081016040528093929190818152602001838380828437820191505050505050613033565b8160400190600019169081600019168152505084848080601f01602080910402602001604051908101604052809392919081815260200183838082843782019150505050505081606001819052506000816000015150602060ff16111515612087576040517f08c379a000000000000000000000000000000000000000000000000000000000815260040180806020018281038252600c8152602001807f496e76616c6964206e616d65000000000000000000000000000000000000000081525060200191505060405180910390fd5b6000816020015150602060ff16111515612109576040517f08c379a000000000000000000000000000000000000000000000000000000000815260040180806020018281038252600d8152602001807f496e76616c696420656d61696c0000000000000000000000000000000000000081525060200191505060405180910390fd5b6000816040015150602060ff1611151561218b576040517f08c379a00000000000000000000000000000000000000000000000000000000081526004018080602001828103825260138152602001807f496e76616c69642070686f6e654e756d6265720000000000000000000000000081525060200191505060405180910390fd5b828160800190600381111561219c57fe5b908160038111156121a957fe5b8152505060018160c0019015159081151581525050600060038111156121cb57fe5b8360038111156121d757fe5b14156122055760018160a0019060018111156121ef57fe5b908160018111156121fc57fe5b81525050612229565b60008160a00190600181111561221757fe5b9081600181111561222457fe5b815250505b7f7f20f29b0c64fedf450de1f8b0602c9b6201a232aa9f821b4f141c70136b730233604051808273ffffffffffffffffffffffffffffffffffffffff1673ffffffffffffffffffffffffffffffffffffffff16815260200191505060405180910390a180600260003373ffffffffffffffffffffffffffffffffffffffff1673ffffffffffffffffffffffffffffffffffffffff16815260200190815260200160002060008201518160000190600019169055602082015181600101906000191690556040820151816002019060001916905560608201518160030190805190602001906123189291906131b7565b5060808201518160040160006101000a81548160ff0219169083600381111561233d57fe5b021790555060a08201518160040160016101000a81548160ff0219169083600181111561236657fe5b021790555060c08201518160040160026101000a81548160ff0219169083151502179055509050506123a46001600654612ff690919063ffffffff16565b6006819055503360036000600654815260200190815260200160002060006101000a81548173ffffffffffffffffffffffffffffffffffffffff021916908373ffffffffffffffffffffffffffffffffffffffff160217905550612406613017565b60065491505b509998505050505050505050565b6000809054906101000a900473ffffffffffffffffffffffffffffffffffffffff1673ffffffffffffffffffffffffffffffffffffffff163373ffffffffffffffffffffffffffffffffffffffff161415156124de576040517f08c379a00000000000000000000000000000000000000000000000000000000081526004018080602001828103825260208152602001807f53656e646572206973206e6f742074686520636f6e7472616374206f776e657281525060200191505060405180910390fd5b81600260008273ffffffffffffffffffffffffffffffffffffffff1673ffffffffffffffffffffffffffffffffffffffff16815260200190815260200160002060040160029054906101000a900460ff1615156125a3576040517f08c379a00000000000000000000000000000000000000000000000000000000081526004018080602001828103825260168152602001807f55736572206973206e6f7420726567697374657265640000000000000000000081525060200191505060405180910390fd5b82600060018111156125b157fe5b600260008373ffffffffffffffffffffffffffffffffffffffff1673ffffffffffffffffffffffffffffffffffffffff16815260200190815260200160002060040160019054906101000a900460ff16600181111561260c57fe5b141515612681576040517f08c379a000000000000000000000000000000000000000000000000000000000815260040180806020018281038252601a8152602001807f55736572206e6f74206f6e2050656e64696e672073746174652e00000000000081525060200191505060405180910390fd5b612689612fbf565b7fe1d37c0bcb0fa7e811e843199b4545236823da49a27150c62baeb69f7ffb235c8484604051808373ffffffffffffffffffffffffffffffffffffffff1673ffffffffffffffffffffffffffffffffffffffff1681526020018260018111156126ee57fe5b60ff1681526020019250505060405180910390a182600260008673ffffffffffffffffffffffffffffffffffffffff1673ffffffffffffffffffffffffffffffffffffffff16815260200190815260200160002060040160016101000a81548160ff0219169083600181111561276057fe5b021790555061276d613017565b50505050565b6000809054906101000a900473ffffffffffffffffffffffffffffffffffffffff1673ffffffffffffffffffffffffffffffffffffffff163373ffffffffffffffffffffffffffffffffffffffff16141515612837576040517f08c379a00000000000000000000000000000000000000000000000000000000081526004018080602001828103825260208152602001807f53656e646572206973206e6f742074686520636f6e7472616374206f776e657281525060200191505060405180910390fd5b6128408161305e565b50565b60008060006060886000602060ff161115156128c7576040517f08c379a000000000000000000000000000000000000000000000000000000000815260040180806020018281038252600c8152602001807f496e76616c6964206e616d65000000000000000000000000000000000000000081525060200191505060405180910390fd5b886000600102816000191614151515612948576040517f08c379a000000000000000000000000000000000000000000000000000000000815260040180806020018281038252600d8152602001807f496e76616c696420656d61696c0000000000000000000000000000000000000081525060200191505060405180910390fd5b8860006001028160001916141515156129c9576040517f08c379a00000000000000000000000000000000000000000000000000000000081526004018080602001828103825260148152602001807f496e76616c69642070686f6e65206e756d62657200000000000000000000000081525060200191505060405180910390fd5b33600260008273ffffffffffffffffffffffffffffffffffffffff1673ffffffffffffffffffffffffffffffffffffffff16815260200190815260200160002060040160029054906101000a900460ff161515612a8e576040517f08c379a00000000000000000000000000000000000000000000000000000000081526004018080602001828103825260168152602001807f55736572206973206e6f7420726567697374657265640000000000000000000081525060200191505060405180910390fd5b612a96612fbf565b7fe774ded9b15f4aef5ec6bf92f2ee65613bf5b652c7059668da7f7c18778d2d6733604051808273ffffffffffffffffffffffffffffffffffffffff1673ffffffffffffffffffffffffffffffffffffffff16815260200191505060405180910390a18c600260003373ffffffffffffffffffffffffffffffffffffffff1673ffffffffffffffffffffffffffffffffffffffff16815260200190815260200160002060000181600019169055508b600260003373ffffffffffffffffffffffffffffffffffffffff1673ffffffffffffffffffffffffffffffffffffffff16815260200190815260200160002060010181600019169055508a600260003373ffffffffffffffffffffffffffffffffffffffff1673ffffffffffffffffffffffffffffffffffffffff16815260200190815260200160002060020181600019169055508989600260003373ffffffffffffffffffffffffffffffffffffffff1673ffffffffffffffffffffffffffffffffffffffff1681526020019081526020016000206003019190612c2b929190613237565b50612c34613017565b600260003373ffffffffffffffffffffffffffffffffffffffff1673ffffffffffffffffffffffffffffffffffffffff16815260200190815260200160002060000154600260003373ffffffffffffffffffffffffffffffffffffffff1673ffffffffffffffffffffffffffffffffffffffff16815260200190815260200160002060010154600260003373ffffffffffffffffffffffffffffffffffffffff1673ffffffffffffffffffffffffffffffffffffffff16815260200190815260200160002060020154600260003373ffffffffffffffffffffffffffffffffffffffff1673ffffffffffffffffffffffffffffffffffffffff168152602001908152602001600020600301808054600181600116156101000203166002900480601f016020809104026020016040519081016040528092919081815260200182805460018160011615610100020316600290048015612dd45780601f10612da957610100808354040283529160200191612dd4565b820191906000526020600020905b815481529060010190602001808311612db757829003601f168201915b5050505050905097509750975097505050505095509550955095915050565b60056020528060005260406000206000915090505481565b6000809054906101000a900473ffffffffffffffffffffffffffffffffffffffff1673ffffffffffffffffffffffffffffffffffffffff163373ffffffffffffffffffffffffffffffffffffffff16141515612ecf576040517f08c379a00000000000000000000000000000000000000000000000000000000081526004018080602001828103825260208152602001807f53656e646572206973206e6f742074686520636f6e7472616374206f776e657281525060200191505060405180910390fd5b612ed7612fbf565b7f3ccc46504679c1c5fe1c052ee612f10257f3af01833d3bbab49785601200d86c8282604051808373ffffffffffffffffffffffffffffffffffffffff1673ffffffffffffffffffffffffffffffffffffffff168152602001826003811115612f3c57fe5b60ff1681526020019250505060405180910390a180600260008473ffffffffffffffffffffffffffffffffffffffff1673ffffffffffffffffffffffffffffffffffffffff16815260200190815260200160002060040160006101000a81548160ff02191690836003811115612fae57fe5b0217905550612fbb613017565b5050565b600060149054906101000a900460ff1615612fd957600080fd5b6001600060146101000a81548160ff021916908315150217905550565b600080828401905083811015151561300d57600080fd5b8091505092915050565b60008060146101000a81548160ff021916908315150217905550565b600060608290506000815114156130505760006001029150613058565b602083015191505b50919050565b600073ffffffffffffffffffffffffffffffffffffffff168173ffffffffffffffffffffffffffffffffffffffff161415151561309a57600080fd5b8073ffffffffffffffffffffffffffffffffffffffff166000809054906101000a900473ffffffffffffffffffffffffffffffffffffffff1673ffffffffffffffffffffffffffffffffffffffff167f8be0079c531659141344cd1fd0a4f28419497f9722a3daafe3b4186f6b6457e060405160405180910390a3806000806101000a81548173ffffffffffffffffffffffffffffffffffffffff021916908373ffffffffffffffffffffffffffffffffffffffff16021790555050565b60e060405190810160405280600080191681526020016000801916815260200160008019168152602001606081526020016000600381111561319657fe5b8152602001600060018111156131a857fe5b81526020016000151581525090565b828054600181600116156101000203166002900490600052602060002090601f016020900481019282601f106131f857805160ff1916838001178555613226565b82800160010185558215613226579182015b8281111561322557825182559160200191906001019061320a565b5b50905061323391906132b7565b5090565b828054600181600116156101000203166002900490600052602060002090601f016020900481019282601f1061327857803560ff19168380011785556132a6565b828001600101855582156132a6579182015b828111156132a557823582559160200191906001019061328a565b5b5090506132b391906132b7565b5090565b6132d991905b808211156132d55760008160009055506001016132bd565b5090565b905600a165627a7a723058207bf6aa18f82f9fd4084e11ba4405f107cc924b0dce74ebebc245787d705dac7d0029",
  "source": "pragma solidity ^0.4.24;\r\n\r\nimport \"./zeppelin/ownership/Ownable.sol\";\r\nimport \"./zeppelin/lifecycle/Killable.sol\";\r\nimport \"./ReentryProtector.sol\";\r\nimport \"./zeppelin/SafeMath.sol\";\r\nimport \"./Ecommerce.sol\";\r\n\r\n/** @title Authentication contract */\r\ncontract Authentication is Ownable, Killable, ReentryProtector {\r\n    using SafeMath for uint256;\r\n\r\n    Ecommerce ecommerce;\r\n\r\n    constructor(address ecommerceAddress) public payable {\r\n        ecommerce = Ecommerce(ecommerceAddress);\r\n    }\r\n\r\n    // ===================================================\r\n    // Fallback\r\n    // ===================================================        \r\n    // this contract will accept any deposit from any person/contract as a donnation when user is creating a store\r\n    // the balance will be added to the EcommerceFactory balance\r\n    function () public payable {\r\n        emit LogDonnationReceived(owner, msg.value);\r\n    }\r\n    \r\n    enum UserType {Buyer, Seller, Arbiter, Owner}\r\n    enum UserState {Pending, Approved}\r\n    struct User {\r\n        bytes32 name;\r\n        bytes32 email;\r\n        bytes32 phoneNumber;\r\n        string profilePicture;\r\n        UserType userType;\r\n        UserState userState;\r\n        bool exists;\r\n    }\r\n\r\n    mapping (address => User) public users;\r\n    mapping (uint => address) public usersById;\r\n    // mapping (address => address) public storesBySellers;\r\n    mapping (uint => address) public sellersById;\r\n    mapping (address => uint) public pendingWithdraws;\r\n\r\n    uint public usersCount;  \r\n    uint public sellersCount;   \r\n\r\n    modifier onlyExistingUser(address user) { require(users[user].exists, \"User is not registered\"); _; }\r\n    modifier onlyExistingUserID(uint userid) { require(usersById[userid] != 0, \"User ID is not registered\"); _; }\r\n    modifier onlyValidName(bytes32 name) { require(name.length > 0, \"Invalid name\"); _; }\r\n    modifier onlyValidEmail(bytes32 email) { require(!(email == 0x0), \"Invalid email\"); _; }\r\n    modifier onlyValidPhone(bytes32 phoneNumber) { require(!(phoneNumber == 0x0), \"Invalid phone number\"); _; }\r\n    modifier onlyPendingState(address user) { require( users[user].userState == UserState.Pending, \"User not on Pending state.\"); _; }\r\n    modifier onlyApprovedState() { require( users[msg.sender].userState == UserState.Approved, \"User not on Approved state.\"); _; }\r\n    modifier onlySeller { require(users[msg.sender].userType == UserType.Seller, \"User is not an seller.\"); _; }\r\n    modifier requireArbiter(address _arbiter) { require( users[_arbiter].userType == UserType.Arbiter , \"A store require an arbiter.\"); _; }\r\n\r\n    event LogDonnationReceived(address sender, uint value);\r\n    event LogUserSignUp(address from);\r\n    event LogUserUpdated(address from);\r\n    event LogUpdateUserState(address userAddress , UserState userState);\r\n    event LogUpdateUserType(address userAddress , UserType userType);\r\n    event LogCreateStore(string message, address storeAddress, address seller);\r\n\r\n    /** @dev Login a user an returns its data\r\n        * @return User struct\r\n        */   \r\n    function login() \r\n        external\r\n        view\r\n        // onlyExistingUser(msg.sender)\r\n        returns (bytes32, bytes32, bytes32, string, UserType, UserState) \r\n    {\r\n        if (users[msg.sender].exists) {\r\n            return (\r\n                    users[msg.sender].name,\r\n                    users[msg.sender].email,\r\n                    users[msg.sender].phoneNumber,\r\n                    users[msg.sender].profilePicture,\r\n                    users[msg.sender].userType,\r\n                    users[msg.sender].userState\r\n                );\r\n        }\r\n        if (owner == msg.sender) \r\n        {\r\n            return (\r\n                stringToBytes32(\"Owner\"),\r\n                stringToBytes32(\"owner@owner.com\"),\r\n                stringToBytes32(\"12345678\"),\r\n                \"ownerImage\",\r\n                UserType.Owner,\r\n                UserState.Approved\r\n            );\r\n        } \r\n    }\r\n\r\n    /** @dev convert strint to bytes32\r\n     */\r\n    function stringToBytes32(string memory source) internal pure returns (bytes32 result) {\r\n        bytes memory tempEmptyStringTest = bytes(source);\r\n        if (tempEmptyStringTest.length == 0) {\r\n            return 0x0;\r\n        }\r\n\r\n        assembly {\r\n            result := mload(add(source, 32))\r\n        }\r\n    }\r\n\r\n    /** @dev signup function to register the user\r\n        * @dev Check if user exists.\r\n        * @dev If yes, return user data.\r\n        * @dev If no, check if name was sent.\r\n        * @dev If yes, create and return user.\r\n        * @param _name uset name\r\n        * @param _email  user email  \r\n        * @param _phoneNumber  user phone number\r\n        * @param _profilePicture  user profile picture\r\n        * @param _userType  user type\r\n        * @return name, email, phoneNumber, profilePicture, userType \r\n        */\r\n    function signup(\r\n        string _name,\r\n        string _email,\r\n        string _phoneNumber,\r\n        string _profilePicture,\r\n        UserType _userType\r\n    )\r\n        external\r\n        payable\r\n        returns (uint) \r\n    {\r\n\r\n        if (users[msg.sender].exists)  return 0;   //exisitng user\r\n\r\n        externalEnter();\r\n        User memory newbie;\r\n        newbie.name = stringToBytes32(_name);\r\n        newbie.email = stringToBytes32(_email);\r\n        newbie.phoneNumber = stringToBytes32(_phoneNumber);\r\n        newbie.profilePicture = _profilePicture;\r\n        \r\n        require(newbie.name.length > 0, \"Invalid name\");\r\n        require(newbie.email.length > 0, \"Invalid email\");\r\n        require(newbie.phoneNumber.length > 0, \"Invalid phoneNumber\");\r\n        // require(newbie.profilePicture.length > 0, \"Invalid profilePicture\");\r\n        \r\n        newbie.userType = _userType;\r\n        newbie.exists = true;\r\n\r\n        if (_userType == UserType.Buyer) {\r\n            newbie.userState = UserState.Approved;\r\n        } else {\r\n            newbie.userState = UserState.Pending;\r\n        }\r\n\r\n        emit LogUserSignUp(msg.sender);\r\n        \r\n        users[msg.sender] = newbie;\r\n        \r\n        usersCount = usersCount.add(1);\r\n        usersById[usersCount] = msg.sender;\r\n    \r\n        externalLeave();\r\n\r\n        return usersCount;\r\n    }\r\n\r\n    /** @dev update user data\r\n    *\r\n    */\r\n    function update(\r\n        bytes32 _name,\r\n        bytes32 _email,\r\n        bytes32 _phoneNumber,\r\n        string _profilePicture\r\n    )\r\n        external\r\n        payable\r\n        onlyValidName(_name)\r\n        onlyValidEmail(_email)\r\n        onlyValidPhone(_phoneNumber)\r\n        onlyExistingUser(msg.sender)\r\n        returns (bytes32, bytes32, bytes32, string) \r\n    {\r\n        externalEnter();\r\n        emit LogUserUpdated(msg.sender);\r\n        users[msg.sender].name = _name;\r\n        users[msg.sender].email = _email;\r\n        users[msg.sender].phoneNumber = _phoneNumber;\r\n        users[msg.sender].profilePicture = _profilePicture;\r\n        externalLeave();\r\n\r\n        return (\r\n            users[msg.sender].name,\r\n            users[msg.sender].email,\r\n            users[msg.sender].phoneNumber,\r\n            users[msg.sender].profilePicture\r\n        );\r\n    }\r\n\r\n\r\n    /** @dev Update user State {Pending, Approved}\r\n        * @param _userAddress user address to update\r\n        * @param _userState new user State\r\n        */    \r\n    function updateUserState(address _userAddress, UserState _userState) \r\n        external \r\n        payable\r\n        onlyOwner\r\n        onlyExistingUser(_userAddress)\r\n        onlyPendingState(_userAddress)\r\n    {\r\n        externalEnter();\r\n        emit LogUpdateUserState(_userAddress, _userState);\r\n        users[_userAddress].userState = _userState;\r\n        externalLeave();\r\n    }\r\n\r\n    /** @dev Update user Type {Buyer, Seller, Arbiter}\r\n        * @param _userAddress  user address to update\r\n        * @param _userType new user type\r\n        */    \r\n    function updateUserType (address _userAddress, UserType _userType) \r\n        external \r\n        payable\r\n        onlyOwner \r\n    {\r\n        externalEnter();\r\n        emit LogUpdateUserType(_userAddress , _userType);\r\n        users[_userAddress].userType = _userType;\r\n        externalLeave();\r\n    }\r\n\r\n    /** @dev using withdraw pattern to prevent attacks \r\n    *   @dev user has to request withdraw before properly transfer the value \r\n    */\r\n    function requestWithdraw() \r\n        external \r\n        payable \r\n        onlyOwner\r\n        returns (bool) \r\n    {\r\n        if (msg.value > 0) {\r\n            pendingWithdraws[msg.sender] = pendingWithdraws[msg.sender].add(msg.value);\r\n            return true;\r\n        } else {\r\n            return false;\r\n        }\r\n    }\r\n\r\n    /** @dev user effectivelly request withdraw\r\n     */\r\n    function withdraw() \r\n        external \r\n        payable \r\n        onlyOwner\r\n    {\r\n        uint amount = pendingWithdraws[msg.sender];\r\n        pendingWithdraws[msg.sender] = 0;\r\n        msg.sender.transfer(amount);\r\n    }\r\n\r\n    /** @dev Create new Ecommerce Contract \r\n      * @param _name store/market name \r\n      * @param _email contact email from store\r\n      * @param _storeImage IFPS address of the image\r\n      * @param _arbiter address of the partie which is responsible for escrows for the created store\r\n      * @return contract address of the store just created and next store number\r\n      */    \r\n    function createStore(\r\n        bytes32 _name, \r\n        bytes32 _email, \r\n        bytes32 _storeImage,\r\n        address _arbiter\r\n    ) \r\n        external \r\n        payable \r\n        onlySeller\r\n        onlyApprovedState\r\n        onlyValidName(_name)\r\n        onlyValidEmail(_email)\r\n        requireArbiter(_arbiter)\r\n        returns (bool) \r\n    {\r\n        externalEnter();   \r\n        bool addStoreResult = ecommerce.addStore(_name, _email, _arbiter, _storeImage, msg.sender);\r\n        if(addStoreResult)\r\n        {\r\n            sellersCount = sellersCount.add(1); //???\r\n            sellersById[sellersCount] = msg.sender;\r\n            emit LogCreateStore(\"New store created\", msg.sender, msg.sender);\r\n        }\r\n        externalLeave();\r\n\r\n        return addStoreResult;\r\n    }\r\n\r\n\r\n    /** @dev get a user's data\r\n    * @return User struct\r\n    */\r\n    function getUser(uint _id) \r\n        external\r\n        view\r\n        onlyExistingUserID(_id)\r\n        returns ( address, bytes32, bytes32, bytes32, string, UserType, UserState) \r\n    {\r\n        User memory user = users[usersById[_id]]; // load product from memory\r\n        return (\r\n            usersById[_id],\r\n            user.name,\r\n            user.email,\r\n            user.phoneNumber,\r\n            user.profilePicture,\r\n            user.userType,\r\n            user.userState\r\n        );\r\n    }\r\n}\r\n\r\n\r\n",
  "sourcePath": "/Users/rafael/Desenv/workspaceSolidity/marketh/contracts/Authentication.sol",
  "compiler": {
    "name": "solc",
    "version": "0.4.24+commit.e67f0147.Emscripten.clang"
  },
  "schemaVersion": "2.0.1",
  "updatedAt": "2018-08-28T03:45:57.858Z"
}