{
  "contractName": "Ecommerce",
  "abi": [
    {
      "constant": true,
      "inputs": [
        {
          "name": "",
          "type": "address"
        }
      ],
      "name": "productCountByStore",
      "outputs": [
        {
          "name": "",
          "type": "uint256"
        }
      ],
      "payable": false,
      "stateMutability": "view",
      "type": "function"
    },
    {
      "constant": true,
      "inputs": [
        {
          "name": "",
          "type": "uint256"
        }
      ],
      "name": "storesById",
      "outputs": [
        {
          "name": "storeAddress",
          "type": "address"
        },
        {
          "name": "name",
          "type": "bytes32"
        },
        {
          "name": "email",
          "type": "bytes32"
        },
        {
          "name": "arbiter",
          "type": "address"
        },
        {
          "name": "storeFrontImage",
          "type": "bytes32"
        },
        {
          "name": "balance",
          "type": "uint256"
        },
        {
          "name": "productCount",
          "type": "uint256"
        }
      ],
      "payable": false,
      "stateMutability": "view",
      "type": "function"
    },
    {
      "constant": true,
      "inputs": [
        {
          "name": "",
          "type": "address"
        }
      ],
      "name": "storesBySellers",
      "outputs": [
        {
          "name": "",
          "type": "uint256"
        }
      ],
      "payable": false,
      "stateMutability": "view",
      "type": "function"
    },
    {
      "constant": true,
      "inputs": [
        {
          "name": "",
          "type": "address"
        },
        {
          "name": "",
          "type": "uint256"
        }
      ],
      "name": "stores",
      "outputs": [
        {
          "name": "id",
          "type": "uint256"
        },
        {
          "name": "name",
          "type": "bytes32"
        },
        {
          "name": "category",
          "type": "bytes32"
        },
        {
          "name": "imageLink",
          "type": "bytes32"
        },
        {
          "name": "descLink",
          "type": "bytes32"
        },
        {
          "name": "startTime",
          "type": "uint256"
        },
        {
          "name": "price",
          "type": "uint256"
        },
        {
          "name": "buyer",
          "type": "address"
        },
        {
          "name": "productCondition",
          "type": "uint8"
        },
        {
          "name": "productState",
          "type": "uint8"
        },
        {
          "name": "exists",
          "type": "bool"
        }
      ],
      "payable": false,
      "stateMutability": "view",
      "type": "function"
    },
    {
      "constant": false,
      "inputs": [],
      "name": "renounceOwnership",
      "outputs": [],
      "payable": false,
      "stateMutability": "nonpayable",
      "type": "function"
    },
    {
      "constant": true,
      "inputs": [],
      "name": "owner",
      "outputs": [
        {
          "name": "",
          "type": "address"
        }
      ],
      "payable": false,
      "stateMutability": "view",
      "type": "function"
    },
    {
      "constant": true,
      "inputs": [],
      "name": "storesCount",
      "outputs": [
        {
          "name": "",
          "type": "uint256"
        }
      ],
      "payable": false,
      "stateMutability": "view",
      "type": "function"
    },
    {
      "constant": true,
      "inputs": [],
      "name": "productCount",
      "outputs": [
        {
          "name": "",
          "type": "uint256"
        }
      ],
      "payable": false,
      "stateMutability": "view",
      "type": "function"
    },
    {
      "constant": true,
      "inputs": [
        {
          "name": "",
          "type": "uint256"
        }
      ],
      "name": "productsEscrow",
      "outputs": [
        {
          "name": "",
          "type": "address"
        }
      ],
      "payable": false,
      "stateMutability": "view",
      "type": "function"
    },
    {
      "constant": false,
      "inputs": [
        {
          "name": "_newOwner",
          "type": "address"
        }
      ],
      "name": "transferOwnership",
      "outputs": [],
      "payable": false,
      "stateMutability": "nonpayable",
      "type": "function"
    },
    {
      "constant": true,
      "inputs": [
        {
          "name": "",
          "type": "uint256"
        }
      ],
      "name": "storesByProductId",
      "outputs": [
        {
          "name": "",
          "type": "address"
        }
      ],
      "payable": false,
      "stateMutability": "view",
      "type": "function"
    },
    {
      "payable": true,
      "stateMutability": "payable",
      "type": "fallback"
    },
    {
      "anonymous": false,
      "inputs": [
        {
          "indexed": false,
          "name": "message",
          "type": "bytes32"
        },
        {
          "indexed": false,
          "name": "productCount",
          "type": "uint256"
        }
      ],
      "name": "LogProductRemoved",
      "type": "event"
    },
    {
      "anonymous": false,
      "inputs": [
        {
          "indexed": false,
          "name": "sender",
          "type": "address"
        },
        {
          "indexed": false,
          "name": "value",
          "type": "uint256"
        }
      ],
      "name": "LogDonnationReceived",
      "type": "event"
    },
    {
      "anonymous": false,
      "inputs": [
        {
          "indexed": false,
          "name": "message",
          "type": "bytes32"
        },
        {
          "indexed": false,
          "name": "id",
          "type": "uint256"
        }
      ],
      "name": "LogForSale",
      "type": "event"
    },
    {
      "anonymous": false,
      "inputs": [
        {
          "indexed": false,
          "name": "message",
          "type": "bytes32"
        },
        {
          "indexed": false,
          "name": "id",
          "type": "uint256"
        }
      ],
      "name": "LogSold",
      "type": "event"
    },
    {
      "anonymous": false,
      "inputs": [
        {
          "indexed": false,
          "name": "message",
          "type": "bytes32"
        },
        {
          "indexed": false,
          "name": "id",
          "type": "uint256"
        }
      ],
      "name": "LogShipped",
      "type": "event"
    },
    {
      "anonymous": false,
      "inputs": [
        {
          "indexed": false,
          "name": "message",
          "type": "bytes32"
        },
        {
          "indexed": false,
          "name": "id",
          "type": "uint256"
        }
      ],
      "name": "LogReceived",
      "type": "event"
    },
    {
      "anonymous": false,
      "inputs": [
        {
          "indexed": false,
          "name": "message",
          "type": "bytes32"
        },
        {
          "indexed": false,
          "name": "_amount",
          "type": "uint256"
        }
      ],
      "name": "LogCheckValue",
      "type": "event"
    },
    {
      "anonymous": false,
      "inputs": [
        {
          "indexed": false,
          "name": "id",
          "type": "uint256"
        },
        {
          "indexed": false,
          "name": "buyer",
          "type": "address"
        },
        {
          "indexed": false,
          "name": "seller",
          "type": "address"
        },
        {
          "indexed": false,
          "name": "arbiter",
          "type": "address"
        }
      ],
      "name": "LogEscrowCreated",
      "type": "event"
    },
    {
      "anonymous": false,
      "inputs": [
        {
          "indexed": false,
          "name": "message",
          "type": "bytes32"
        },
        {
          "indexed": false,
          "name": "productId",
          "type": "uint256"
        },
        {
          "indexed": false,
          "name": "caller",
          "type": "address"
        }
      ],
      "name": "LogReleaseAmountToSeller",
      "type": "event"
    },
    {
      "anonymous": false,
      "inputs": [
        {
          "indexed": false,
          "name": "message",
          "type": "bytes32"
        },
        {
          "indexed": false,
          "name": "productId",
          "type": "uint256"
        },
        {
          "indexed": false,
          "name": "caller",
          "type": "address"
        }
      ],
      "name": "LogRefundAmountToBuyer",
      "type": "event"
    },
    {
      "anonymous": false,
      "inputs": [
        {
          "indexed": false,
          "name": "message",
          "type": "bytes32"
        },
        {
          "indexed": false,
          "name": "productId",
          "type": "uint256"
        },
        {
          "indexed": false,
          "name": "caller",
          "type": "address"
        }
      ],
      "name": "LogWithdraw",
      "type": "event"
    },
    {
      "anonymous": false,
      "inputs": [
        {
          "indexed": false,
          "name": "message",
          "type": "bytes32"
        },
        {
          "indexed": false,
          "name": "productId",
          "type": "uint256"
        }
      ],
      "name": "LogProductUpdated",
      "type": "event"
    },
    {
      "anonymous": false,
      "inputs": [
        {
          "indexed": true,
          "name": "previousOwner",
          "type": "address"
        }
      ],
      "name": "OwnershipRenounced",
      "type": "event"
    },
    {
      "anonymous": false,
      "inputs": [
        {
          "indexed": true,
          "name": "previousOwner",
          "type": "address"
        },
        {
          "indexed": true,
          "name": "newOwner",
          "type": "address"
        }
      ],
      "name": "OwnershipTransferred",
      "type": "event"
    },
    {
      "constant": false,
      "inputs": [
        {
          "name": "_name",
          "type": "bytes32"
        },
        {
          "name": "_email",
          "type": "bytes32"
        },
        {
          "name": "_arbiter",
          "type": "address"
        },
        {
          "name": "_storeFrontImage",
          "type": "bytes32"
        },
        {
          "name": "_sellerAddress",
          "type": "address"
        }
      ],
      "name": "addStore",
      "outputs": [
        {
          "name": "",
          "type": "bool"
        }
      ],
      "payable": true,
      "stateMutability": "payable",
      "type": "function"
    },
    {
      "constant": false,
      "inputs": [
        {
          "name": "_name",
          "type": "bytes32"
        },
        {
          "name": "_category",
          "type": "bytes32"
        },
        {
          "name": "_startTime",
          "type": "uint256"
        },
        {
          "name": "_price",
          "type": "uint256"
        },
        {
          "name": "_productCondition",
          "type": "uint256"
        }
      ],
      "name": "addProduct",
      "outputs": [],
      "payable": false,
      "stateMutability": "nonpayable",
      "type": "function"
    },
    {
      "constant": false,
      "inputs": [
        {
          "name": "_id",
          "type": "uint256"
        },
        {
          "name": "_imageLink",
          "type": "bytes32"
        }
      ],
      "name": "updateProductImage",
      "outputs": [],
      "payable": false,
      "stateMutability": "nonpayable",
      "type": "function"
    },
    {
      "constant": false,
      "inputs": [
        {
          "name": "_id",
          "type": "uint256"
        },
        {
          "name": "_descLink",
          "type": "bytes32"
        }
      ],
      "name": "updateProductDesc",
      "outputs": [],
      "payable": false,
      "stateMutability": "nonpayable",
      "type": "function"
    },
    {
      "constant": false,
      "inputs": [
        {
          "name": "_id",
          "type": "uint256"
        }
      ],
      "name": "removeProduct",
      "outputs": [],
      "payable": false,
      "stateMutability": "nonpayable",
      "type": "function"
    },
    {
      "constant": true,
      "inputs": [
        {
          "name": "_id",
          "type": "uint256"
        }
      ],
      "name": "getProduct",
      "outputs": [
        {
          "name": "id",
          "type": "uint256"
        },
        {
          "name": "name",
          "type": "bytes32"
        },
        {
          "name": "category",
          "type": "bytes32"
        },
        {
          "name": "startTime",
          "type": "uint256"
        },
        {
          "name": "price",
          "type": "uint256"
        },
        {
          "name": "buyer",
          "type": "address"
        },
        {
          "name": "condition",
          "type": "uint8"
        },
        {
          "name": "productState",
          "type": "uint8"
        }
      ],
      "payable": false,
      "stateMutability": "view",
      "type": "function"
    },
    {
      "constant": true,
      "inputs": [
        {
          "name": "_id",
          "type": "uint256"
        }
      ],
      "name": "getProductDetails",
      "outputs": [
        {
          "name": "imageLink",
          "type": "bytes32"
        },
        {
          "name": "descLink",
          "type": "bytes32"
        }
      ],
      "payable": false,
      "stateMutability": "view",
      "type": "function"
    },
    {
      "constant": false,
      "inputs": [
        {
          "name": "_id",
          "type": "uint256"
        }
      ],
      "name": "buyProduct",
      "outputs": [],
      "payable": true,
      "stateMutability": "payable",
      "type": "function"
    },
    {
      "constant": false,
      "inputs": [
        {
          "name": "_id",
          "type": "uint256"
        }
      ],
      "name": "shipItem",
      "outputs": [],
      "payable": false,
      "stateMutability": "nonpayable",
      "type": "function"
    },
    {
      "constant": false,
      "inputs": [
        {
          "name": "_id",
          "type": "uint256"
        }
      ],
      "name": "receiveItem",
      "outputs": [],
      "payable": false,
      "stateMutability": "nonpayable",
      "type": "function"
    },
    {
      "constant": true,
      "inputs": [
        {
          "name": "_id",
          "type": "uint256"
        }
      ],
      "name": "escrowDetails",
      "outputs": [
        {
          "name": "",
          "type": "address"
        },
        {
          "name": "",
          "type": "address"
        },
        {
          "name": "",
          "type": "address"
        },
        {
          "name": "",
          "type": "uint256"
        },
        {
          "name": "",
          "type": "bool"
        },
        {
          "name": "",
          "type": "uint256"
        },
        {
          "name": "",
          "type": "uint256"
        }
      ],
      "payable": false,
      "stateMutability": "view",
      "type": "function"
    },
    {
      "constant": false,
      "inputs": [
        {
          "name": "_id",
          "type": "uint256"
        }
      ],
      "name": "releaseAmountToSeller",
      "outputs": [],
      "payable": false,
      "stateMutability": "nonpayable",
      "type": "function"
    },
    {
      "constant": false,
      "inputs": [
        {
          "name": "_id",
          "type": "uint256"
        }
      ],
      "name": "refundAmountToBuyer",
      "outputs": [],
      "payable": false,
      "stateMutability": "nonpayable",
      "type": "function"
    },
    {
      "constant": false,
      "inputs": [
        {
          "name": "_id",
          "type": "uint256"
        }
      ],
      "name": "withdraw",
      "outputs": [],
      "payable": false,
      "stateMutability": "nonpayable",
      "type": "function"
    }
  ],
  "bytecode": "0x6080604052336000806101000a81548173ffffffffffffffffffffffffffffffffffffffff021916908373ffffffffffffffffffffffffffffffffffffffff160217905550615f04806100536000396000f300608060405260043610610149576000357c0100000000000000000000000000000000000000000000000000000000900463ffffffff1680630281ff3a146101b657806305833f401461020d5780630674ca3c14610300578063167d21fc146103db578063182cf11d146104325780632e1a7d4d1461048f57806354121c74146104bc5780635ee95cae146105cf5780636813b53b146105fc578063715018a6146106545780638642269e1461066b5780638da5cb5b1461068b57806399a52b63146106e25780639a3a7c691461077a578063a26be999146107a7578063aa0cd2b8146107d4578063b9db15b4146107ff578063cc352db7146108c9578063d7fd44cd146108f6578063e0f6ef8714610931578063e6db4d6c1461095c578063f2fde38b146109c9578063f6030dba14610a0c578063f61c899a14610a47578063f95a279f14610a74575b7f35f0da97044ba850edf0920ccb36ddc81e43169cd025bf93b2ff4e10e96608423334604051808373ffffffffffffffffffffffffffffffffffffffff1673ffffffffffffffffffffffffffffffffffffffff1681526020018281526020019250505060405180910390a1005b3480156101c257600080fd5b506101f7600480360381019080803573ffffffffffffffffffffffffffffffffffffffff169060200190929190505050610ae1565b6040518082815260200191505060405180910390f35b34801561021957600080fd5b5061023860048036038101908080359060200190929190505050610af9565b604051808873ffffffffffffffffffffffffffffffffffffffff1673ffffffffffffffffffffffffffffffffffffffff1681526020018773ffffffffffffffffffffffffffffffffffffffff1673ffffffffffffffffffffffffffffffffffffffff1681526020018673ffffffffffffffffffffffffffffffffffffffff1673ffffffffffffffffffffffffffffffffffffffff1681526020018581526020018415151515815260200183815260200182815260200197505050505050505060405180910390f35b34801561030c57600080fd5b5061032b60048036038101908080359060200190929190505050610d35565b604051808873ffffffffffffffffffffffffffffffffffffffff1673ffffffffffffffffffffffffffffffffffffffff168152602001876000191660001916815260200186600019166000191681526020018573ffffffffffffffffffffffffffffffffffffffff1673ffffffffffffffffffffffffffffffffffffffff168152602001846000191660001916815260200183815260200182815260200197505050505050505060405180910390f35b3480156103e757600080fd5b5061041c600480360381019080803573ffffffffffffffffffffffffffffffffffffffff169060200190929190505050610db7565b6040518082815260200191505060405180910390f35b34801561043e57600080fd5b5061048d60048036038101908080356000191690602001909291908035600019169060200190929190803590602001909291908035906020019092919080359060200190929190505050610dcf565b005b34801561049b57600080fd5b506104ba600480360381019080803590602001909291905050506115b6565b005b3480156104c857600080fd5b50610507600480360381019080803573ffffffffffffffffffffffffffffffffffffffff1690602001909291908035906020019092919050505061184c565b604051808c81526020018b600019166000191681526020018a60001916600019168152602001896000191660001916815260200188600019166000191681526020018781526020018681526020018573ffffffffffffffffffffffffffffffffffffffff1673ffffffffffffffffffffffffffffffffffffffff16815260200184600181111561059357fe5b60ff1681526020018360048111156105a757fe5b60ff168152602001821515151581526020019b50505050505050505050505060405180910390f35b3480156105db57600080fd5b506105fa600480360381019080803590602001909291905050506118fa565b005b34801561060857600080fd5b5061062760048036038101908080359060200190929190505050611dbc565b60405180836000191660001916815260200182600019166000191681526020019250505060405180910390f35b34801561066057600080fd5b506106696120a8565b005b61068960048036038101908080359060200190929190505050612213565b005b34801561069757600080fd5b506106a06129a1565b604051808273ffffffffffffffffffffffffffffffffffffffff1673ffffffffffffffffffffffffffffffffffffffff16815260200191505060405180910390f35b61076060048036038101908080356000191690602001909291908035600019169060200190929190803573ffffffffffffffffffffffffffffffffffffffff1690602001909291908035600019169060200190929190803573ffffffffffffffffffffffffffffffffffffffff1690602001909291905050506129c6565b604051808215151515815260200191505060405180910390f35b34801561078657600080fd5b506107a560048036038101908080359060200190929190505050612cba565b005b3480156107b357600080fd5b506107d260048036038101908080359060200190929190505050612f50565b005b3480156107e057600080fd5b506107e9613408565b6040518082815260200191505060405180910390f35b34801561080b57600080fd5b5061082a6004803603810190808035906020019092919050505061340e565b60405180898152602001886000191660001916815260200187600019166000191681526020018681526020018581526020018473ffffffffffffffffffffffffffffffffffffffff1673ffffffffffffffffffffffffffffffffffffffff16815260200183600181111561089a57fe5b60ff1681526020018260048111156108ae57fe5b60ff1681526020019850505050505050505060405180910390f35b3480156108d557600080fd5b506108f460048036038101908080359060200190929190505050613735565b005b34801561090257600080fd5b5061092f6004803603810190808035906020019092919080356000191690602001909291905050506139cb565b005b34801561093d57600080fd5b50610946613d71565b6040518082815260200191505060405180910390f35b34801561096857600080fd5b5061098760048036038101908080359060200190929190505050613d77565b604051808273ffffffffffffffffffffffffffffffffffffffff1673ffffffffffffffffffffffffffffffffffffffff16815260200191505060405180910390f35b3480156109d557600080fd5b50610a0a600480360381019080803573ffffffffffffffffffffffffffffffffffffffff169060200190929190505050613daa565b005b348015610a1857600080fd5b50610a45600480360381019080803590602001909291908035600019169060200190929190505050613e7a565b005b348015610a5357600080fd5b50610a7260048036038101908080359060200190929190505050614220565b005b348015610a8057600080fd5b50610a9f60048036038101908080359060200190929190505050614664565b604051808273ffffffffffffffffffffffffffffffffffffffff1673ffffffffffffffffffffffffffffffffffffffff16815260200191505060405180910390f35b60056020528060005260406000206000915090505481565b600080600080600080600087600260006003600084815260200190815260200160002060009054906101000a900473ffffffffffffffffffffffffffffffffffffffff1673ffffffffffffffffffffffffffffffffffffffff1673ffffffffffffffffffffffffffffffffffffffff168152602001908152602001600020600082815260200190815260200160002060070160169054906101000a900460ff161515610c0d576040517f08c379a00000000000000000000000000000000000000000000000000000000081526004018080602001828103825260128152602001807f50726f64756374206e6f7420666f756e642e000000000000000000000000000081525060200191505060405180910390fd5b600660008a815260200190815260200160002060009054906101000a900473ffffffffffffffffffffffffffffffffffffffff1673ffffffffffffffffffffffffffffffffffffffff16635a8d2e9d6040518163ffffffff167c010000000000000000000000000000000000000000000000000000000002815260040160e060405180830381600087803b158015610ca457600080fd5b505af1158015610cb8573d6000803e3d6000fd5b505050506040513d60e0811015610cce57600080fd5b8101908080519060200190929190805190602001909291908051906020019092919080519060200190929190805190602001909291908051906020019092919080519060200190929190505050975097509750975097509750975050919395979092949650565b60016020528060005260406000206000915090508060000160009054906101000a900473ffffffffffffffffffffffffffffffffffffffff16908060010154908060020154908060030160009054906101000a900473ffffffffffffffffffffffffffffffffffffffff16908060040154908060050154908060060154905087565b60046020528060005260406000206000915090505481565b610dd7614c81565b3373ffffffffffffffffffffffffffffffffffffffff1660016000600460003373ffffffffffffffffffffffffffffffffffffffff1673ffffffffffffffffffffffffffffffffffffffff16815260200190815260200160002054815260200190815260200160002060000160009054906101000a900473ffffffffffffffffffffffffffffffffffffffff1673ffffffffffffffffffffffffffffffffffffffff16141515610eef576040517f08c379a000000000000000000000000000000000000000000000000000000000815260040180806020018281038252601c8152602001807f596f7520617265206e6f74207468652073746f7265206f776e6572210000000081525060200191505060405180910390fd5b856000600102816000191614151515610f70576040517f08c379a00000000000000000000000000000000000000000000000000000000081526004018080602001828103825260198152602001807f50726f64756374206e616d65206973206d616e6461746f72790000000000000081525060200191505060405180910390fd5b856000600102816000191614151515610ff1576040517f08c379a000000000000000000000000000000000000000000000000000000000815260040180806020018281038252601d8152602001807f50726f647563742063617465676f7279206973206d616e6461746f727900000081525060200191505060405180910390fd5b8560008111151561106a576040517f08c379a000000000000000000000000000000000000000000000000000000000815260040180806020018281038252601f8152602001807f4c697374696e672073746172742074696d65206973206d616e6461746f72790081525060200191505060405180910390fd5b856000811115156110e3576040517f08c379a000000000000000000000000000000000000000000000000000000000815260040180806020018281038252601a8152602001807f50726f64756374207072696365206973206d616e6461746f727900000000000081525060200191505060405180910390fd5b85600060018111156110f157fe5b8160018111156110fd57fe5b600181111561110857fe5b1480611134575060018081111561111b57fe5b81600181111561112757fe5b600181111561113257fe5b145b15156111a8576040517f08c379a00000000000000000000000000000000000000000000000000000000081526004018080602001828103825260198152602001807f50726f64756374206e616d65206973206d616e6461746f72790000000000000081525060200191505060405180910390fd5b6111b0614697565b6111c660016008546146ce90919063ffffffff16565b6008819055506101606040519081016040528060085481526020018c6000191681526020018b6000191681526020017f656d7074790000000000000000000000000000000000000000000000000000006000191681526020017f656d7074790000000000000000000000000000000000000000000000000000006000191681526020018a8152602001898152602001600073ffffffffffffffffffffffffffffffffffffffff16815260200188600181111561127e57fe5b600181111561128957fe5b81526020016000600481111561129b57fe5b815260200160011515815250955085600260003373ffffffffffffffffffffffffffffffffffffffff1673ffffffffffffffffffffffffffffffffffffffff16815260200190815260200160002060006008548152602001908152602001600020600082015181600001556020820151816001019060001916905560408201518160020190600019169055606082015181600301906000191690556080820151816004019060001916905560a0820151816005015560c0820151816006015560e08201518160070160006101000a81548173ffffffffffffffffffffffffffffffffffffffff021916908373ffffffffffffffffffffffffffffffffffffffff1602179055506101008201518160070160146101000a81548160ff021916908360018111156113c657fe5b02179055506101208201518160070160156101000a81548160ff021916908360048111156113f057fe5b02179055506101408201518160070160166101000a81548160ff0219169083151502179055509050503360036000600854815260200190815260200160002060006101000a81548173ffffffffffffffffffffffffffffffffffffffff021916908373ffffffffffffffffffffffffffffffffffffffff1602179055506114c06001600560003373ffffffffffffffffffffffffffffffffffffffff1673ffffffffffffffffffffffffffffffffffffffff168152602001908152602001600020546146ce90919063ffffffff16565b600560003373ffffffffffffffffffffffffffffffffffffffff1673ffffffffffffffffffffffffffffffffffffffff168152602001908152602001600020819055507fbd070d471b9f8738523f9b4ff4cad5c695d4baf764ac26460eaef9acd83ebc4a600560003373ffffffffffffffffffffffffffffffffffffffff1673ffffffffffffffffffffffffffffffffffffffff1681526020019081526020016000205460405180807f50726f6475637420666f722053616c653a00000000000000000000000000000081525060200182815260200191505060405180910390a16115a96146ef565b5050505050505050505050565b80600260006003600084815260200190815260200160002060009054906101000a900473ffffffffffffffffffffffffffffffffffffffff1673ffffffffffffffffffffffffffffffffffffffff1673ffffffffffffffffffffffffffffffffffffffff168152602001908152602001600020600082815260200190815260200160002060070160169054906101000a900460ff1615156116bf576040517f08c379a00000000000000000000000000000000000000000000000000000000081526004018080602001828103825260128152602001807f50726f64756374206e6f7420666f756e642e000000000000000000000000000081525060200191505060405180910390fd5b6116c7614697565b6006600083815260200190815260200160002060009054906101000a900473ffffffffffffffffffffffffffffffffffffffff1673ffffffffffffffffffffffffffffffffffffffff166351cff8d9336040518263ffffffff167c0100000000000000000000000000000000000000000000000000000000028152600401808273ffffffffffffffffffffffffffffffffffffffff1673ffffffffffffffffffffffffffffffffffffffff168152602001915050600060405180830381600087803b15801561179557600080fd5b505af11580156117a9573d6000803e3d6000fd5b505050507ffb9c6fac36f7e54df875de88ce37aee0d82a94642c65e31d82767358834665c3823360405180807f57697468647261772072657175657374000000000000000000000000000000008152506020018381526020018273ffffffffffffffffffffffffffffffffffffffff1673ffffffffffffffffffffffffffffffffffffffff1681526020019250505060405180910390a16118486146ef565b5050565b6002602052816000526040600020602052806000526040600020600091509150508060000154908060010154908060020154908060030154908060040154908060050154908060060154908060070160009054906101000a900473ffffffffffffffffffffffffffffffffffffffff16908060070160149054906101000a900460ff16908060070160159054906101000a900460ff16908060070160169054906101000a900460ff1690508b565b3373ffffffffffffffffffffffffffffffffffffffff1660016000600460003373ffffffffffffffffffffffffffffffffffffffff1673ffffffffffffffffffffffffffffffffffffffff16815260200190815260200160002054815260200190815260200160002060000160009054906101000a900473ffffffffffffffffffffffffffffffffffffffff1673ffffffffffffffffffffffffffffffffffffffff16141515611a12576040517f08c379a000000000000000000000000000000000000000000000000000000000815260040180806020018281038252601c8152602001807f596f7520617265206e6f74207468652073746f7265206f776e6572210000000081525060200191505060405180910390fd5b80600260006003600084815260200190815260200160002060009054906101000a900473ffffffffffffffffffffffffffffffffffffffff1673ffffffffffffffffffffffffffffffffffffffff1673ffffffffffffffffffffffffffffffffffffffff168152602001908152602001600020600082815260200190815260200160002060070160169054906101000a900460ff161515611b1b576040517f08c379a00000000000000000000000000000000000000000000000000000000081526004018080602001828103825260128152602001807f50726f64756374206e6f7420666f756e642e000000000000000000000000000081525060200191505060405180910390fd5b8160006004811115611b2957fe5b600260006003600085815260200190815260200160002060009054906101000a900473ffffffffffffffffffffffffffffffffffffffff1673ffffffffffffffffffffffffffffffffffffffff1673ffffffffffffffffffffffffffffffffffffffff168152602001908152602001600020600083815260200190815260200160002060070160159054906101000a900460ff166004811115611bc857fe5b141515611c3d576040517f08c379a00000000000000000000000000000000000000000000000000000000081526004018080602001828103825260198152602001807f50726f64756374206e6f74206f6e2053616c652073746174650000000000000081525060200191505060405180910390fd5b611c45614697565b6004600260003373ffffffffffffffffffffffffffffffffffffffff1673ffffffffffffffffffffffffffffffffffffffff168152602001908152602001600020600085815260200190815260200160002060070160156101000a81548160ff02191690836004811115611cb557fe5b0217905550611d0d6001600560003373ffffffffffffffffffffffffffffffffffffffff1673ffffffffffffffffffffffffffffffffffffffff1681526020019081526020016000205461470b90919063ffffffff16565b600560003373ffffffffffffffffffffffffffffffffffffffff1673ffffffffffffffffffffffffffffffffffffffff168152602001908152602001600020819055507fb13505d1bb1fea242eade668966a6b565cde4732a773553633542669cecffcf78360405180807f50726f647563742072656d6f7665643a0000000000000000000000000000000081525060200182815260200191505060405180910390a1611db76146ef565b505050565b600080611dc7614c81565b83600260006003600084815260200190815260200160002060009054906101000a900473ffffffffffffffffffffffffffffffffffffffff1673ffffffffffffffffffffffffffffffffffffffff1673ffffffffffffffffffffffffffffffffffffffff168152602001908152602001600020600082815260200190815260200160002060070160169054906101000a900460ff161515611ed0576040517f08c379a00000000000000000000000000000000000000000000000000000000081526004018080602001828103825260128152602001807f50726f64756374206e6f7420666f756e642e000000000000000000000000000081525060200191505060405180910390fd5b600260006003600088815260200190815260200160002060009054906101000a900473ffffffffffffffffffffffffffffffffffffffff1673ffffffffffffffffffffffffffffffffffffffff1673ffffffffffffffffffffffffffffffffffffffff168152602001908152602001600020600086815260200190815260200160002061016060405190810160405290816000820154815260200160018201546000191660001916815260200160028201546000191660001916815260200160038201546000191660001916815260200160048201546000191660001916815260200160058201548152602001600682015481526020016007820160009054906101000a900473ffffffffffffffffffffffffffffffffffffffff1673ffffffffffffffffffffffffffffffffffffffff1673ffffffffffffffffffffffffffffffffffffffff1681526020016007820160149054906101000a900460ff16600181111561203a57fe5b600181111561204557fe5b81526020016007820160159054906101000a900460ff16600481111561206757fe5b600481111561207257fe5b81526020016007820160169054906101000a900460ff161515151581525050915081606001518260800151935093505050915091565b6000809054906101000a900473ffffffffffffffffffffffffffffffffffffffff1673ffffffffffffffffffffffffffffffffffffffff163373ffffffffffffffffffffffffffffffffffffffff1614151561216c576040517f08c379a00000000000000000000000000000000000000000000000000000000081526004018080602001828103825260208152602001807f53656e646572206973206e6f742074686520636f6e7472616374206f776e657281525060200191505060405180910390fd5b6000809054906101000a900473ffffffffffffffffffffffffffffffffffffffff1673ffffffffffffffffffffffffffffffffffffffff167ff8df31144d9c2f0f6b59d69b8b98abd5459d07f2742c4df920b25aae33c6482060405160405180910390a260008060006101000a81548173ffffffffffffffffffffffffffffffffffffffff021916908373ffffffffffffffffffffffffffffffffffffffff160217905550565b80600260006003600084815260200190815260200160002060009054906101000a900473ffffffffffffffffffffffffffffffffffffffff1673ffffffffffffffffffffffffffffffffffffffff1673ffffffffffffffffffffffffffffffffffffffff168152602001908152602001600020600082815260200190815260200160002060070160169054906101000a900460ff16151561231c576040517f08c379a00000000000000000000000000000000000000000000000000000000081526004018080602001828103825260128152602001807f50726f64756374206e6f7420666f756e642e000000000000000000000000000081525060200191505060405180910390fd5b816000600481111561232a57fe5b600260006003600085815260200190815260200160002060009054906101000a900473ffffffffffffffffffffffffffffffffffffffff1673ffffffffffffffffffffffffffffffffffffffff1673ffffffffffffffffffffffffffffffffffffffff168152602001908152602001600020600083815260200190815260200160002060070160159054906101000a900460ff1660048111156123c957fe5b14151561243e576040517f08c379a00000000000000000000000000000000000000000000000000000000081526004018080602001828103825260198152602001807f50726f64756374206e6f74206f6e2053616c652073746174650000000000000081525060200191505060405180910390fd5b600260006003600086815260200190815260200160002060009054906101000a900473ffffffffffffffffffffffffffffffffffffffff1673ffffffffffffffffffffffffffffffffffffffff1673ffffffffffffffffffffffffffffffffffffffff16815260200190815260200160002060008481526020019081526020016000206006015480341015151561253d576040517f08c379a000000000000000000000000000000000000000000000000000000000815260040180806020018281038252601f8152602001807f4e6f74207061696420656e6f75676820666f72207468652070726f647563740081525060200191505060405180910390fd5b83600080612549614697565b3360026000600360008b815260200190815260200160002060009054906101000a900473ffffffffffffffffffffffffffffffffffffffff1673ffffffffffffffffffffffffffffffffffffffff1673ffffffffffffffffffffffffffffffffffffffff168152602001908152602001600020600089815260200190815260200160002060070160006101000a81548173ffffffffffffffffffffffffffffffffffffffff021916908373ffffffffffffffffffffffffffffffffffffffff160217905550600160026000600360008b815260200190815260200160002060009054906101000a900473ffffffffffffffffffffffffffffffffffffffff1673ffffffffffffffffffffffffffffffffffffffff1673ffffffffffffffffffffffffffffffffffffffff168152602001908152602001600020600089815260200190815260200160002060070160156101000a81548160ff021916908360048111156126b157fe5b02179055507f038ad0375941c052833e17ab9fa0f9b56c84ecf4649e574011826a644b7475f08760405180807f50726f6475637420736f6c64000000000000000000000000000000000000000081525060200182815260200191505060405180910390a16127a68760026000600360008c815260200190815260200160002060009054906101000a900473ffffffffffffffffffffffffffffffffffffffff1673ffffffffffffffffffffffffffffffffffffffff1673ffffffffffffffffffffffffffffffffffffffff16815260200190815260200160002060008a8152602001908152602001600020600601543361472c565b6127ae6146ef565b600260006003600086815260200190815260200160002060009054906101000a900473ffffffffffffffffffffffffffffffffffffffff1673ffffffffffffffffffffffffffffffffffffffff1673ffffffffffffffffffffffffffffffffffffffff168152602001908152602001600020600084815260200190815260200160002060060154915061284a823461470b90919063ffffffff16565b9050600260006003600086815260200190815260200160002060009054906101000a900473ffffffffffffffffffffffffffffffffffffffff1673ffffffffffffffffffffffffffffffffffffffff1673ffffffffffffffffffffffffffffffffffffffff168152602001908152602001600020600084815260200190815260200160002060070160009054906101000a900473ffffffffffffffffffffffffffffffffffffffff1673ffffffffffffffffffffffffffffffffffffffff166108fc829081150290604051600060405180830381858888f19350505050158015612938573d6000803e3d6000fd5b507ff6afbd6a4ab3e087d514366cb7671e723df9d60a28aedacb831b49d90d71fde48160405180807f416d6f756e7420746f20726566756e640000000000000000000000000000000081525060200182815260200191505060405180910390a150505050505050565b6000809054906101000a900473ffffffffffffffffffffffffffffffffffffffff1681565b60008160016000600460008473ffffffffffffffffffffffffffffffffffffffff1673ffffffffffffffffffffffffffffffffffffffff16815260200190815260200160002054815260200190815260200160002060000160009054906101000a900473ffffffffffffffffffffffffffffffffffffffff1673ffffffffffffffffffffffffffffffffffffffff168173ffffffffffffffffffffffffffffffffffffffff1614151515612ae2576040517f08c379a00000000000000000000000000000000000000000000000000000000081526004018080602001828103825260188152602001807f5573657220616c72656164792068617320612073746f7265000000000000000081525060200191505060405180910390fd5b612aea614697565b612b0060016007546146ce90919063ffffffff16565b60078190555060e0604051908101604052808473ffffffffffffffffffffffffffffffffffffffff16815260200188600019168152602001876000191681526020018673ffffffffffffffffffffffffffffffffffffffff1681526020018560001916815260200160008152602001600081525060016000600754815260200190815260200160002060008201518160000160006101000a81548173ffffffffffffffffffffffffffffffffffffffff021916908373ffffffffffffffffffffffffffffffffffffffff160217905550602082015181600101906000191690556040820151816002019060001916905560608201518160030160006101000a81548173ffffffffffffffffffffffffffffffffffffffff021916908373ffffffffffffffffffffffffffffffffffffffff1602179055506080820151816004019060001916905560a0820151816005015560c08201518160060155905050600754600460008573ffffffffffffffffffffffffffffffffffffffff1673ffffffffffffffffffffffffffffffffffffffff16815260200190815260200160002081905550612cac6146ef565b600191505095945050505050565b80600260006003600084815260200190815260200160002060009054906101000a900473ffffffffffffffffffffffffffffffffffffffff1673ffffffffffffffffffffffffffffffffffffffff1673ffffffffffffffffffffffffffffffffffffffff168152602001908152602001600020600082815260200190815260200160002060070160169054906101000a900460ff161515612dc3576040517f08c379a00000000000000000000000000000000000000000000000000000000081526004018080602001828103825260128152602001807f50726f64756374206e6f7420666f756e642e000000000000000000000000000081525060200191505060405180910390fd5b612dcb614697565b6006600083815260200190815260200160002060009054906101000a900473ffffffffffffffffffffffffffffffffffffffff1673ffffffffffffffffffffffffffffffffffffffff166358aad10b336040518263ffffffff167c0100000000000000000000000000000000000000000000000000000000028152600401808273ffffffffffffffffffffffffffffffffffffffff1673ffffffffffffffffffffffffffffffffffffffff168152602001915050600060405180830381600087803b158015612e9957600080fd5b505af1158015612ead573d6000803e3d6000fd5b505050507fe1e0d499371e1f8787476ae453e2349caf0f8737fcf37a421d101e7cbd8915f2823360405180807f416d6f756e742072656c656173656420746f2053656c6c6572000000000000008152506020018381526020018273ffffffffffffffffffffffffffffffffffffffff1673ffffffffffffffffffffffffffffffffffffffff1681526020019250505060405180910390a1612f4c6146ef565b5050565b8060026004811115612f5e57fe5b600260006003600085815260200190815260200160002060009054906101000a900473ffffffffffffffffffffffffffffffffffffffff1673ffffffffffffffffffffffffffffffffffffffff1673ffffffffffffffffffffffffffffffffffffffff168152602001908152602001600020600083815260200190815260200160002060070160159054906101000a900460ff166004811115612ffd57fe5b141515613072576040517f08c379a000000000000000000000000000000000000000000000000000000000815260040180806020018281038252601c8152602001807f50726f64756374206e6f74206f6e20536869707065642073746174650000000081525060200191505060405180910390fd5b81600260006003600084815260200190815260200160002060009054906101000a900473ffffffffffffffffffffffffffffffffffffffff1673ffffffffffffffffffffffffffffffffffffffff1673ffffffffffffffffffffffffffffffffffffffff168152602001908152602001600020600082815260200190815260200160002060070160169054906101000a900460ff16151561317b576040517f08c379a00000000000000000000000000000000000000000000000000000000081526004018080602001828103825260128152602001807f50726f64756374206e6f7420666f756e642e000000000000000000000000000081525060200191505060405180910390fd5b600260006003600086815260200190815260200160002060009054906101000a900473ffffffffffffffffffffffffffffffffffffffff1673ffffffffffffffffffffffffffffffffffffffff1673ffffffffffffffffffffffffffffffffffffffff168152602001908152602001600020600084815260200190815260200160002060070160009054906101000a900473ffffffffffffffffffffffffffffffffffffffff168073ffffffffffffffffffffffffffffffffffffffff163373ffffffffffffffffffffffffffffffffffffffff161415156132eb576040517f08c379a000000000000000000000000000000000000000000000000000000000815260040180806020018281038252602b8152602001807f43616c6c6572206e6f7420617574686f72697a656420746f207573652074686981526020017f732066756e6374696f6e2e00000000000000000000000000000000000000000081525060400191505060405180910390fd5b6132f3614697565b6003600260006003600088815260200190815260200160002060009054906101000a900473ffffffffffffffffffffffffffffffffffffffff1673ffffffffffffffffffffffffffffffffffffffff1673ffffffffffffffffffffffffffffffffffffffff168152602001908152602001600020600086815260200190815260200160002060070160156101000a81548160ff0219169083600481111561339657fe5b02179055507f0a6f228c6fcea3ef29aa7125575575ec2ccd7df6cb06985f6f84c34b491ff1218460405180807f50726f647563742072656365697665640000000000000000000000000000000081525060200182815260200191505060405180910390a16134026146ef565b50505050565b60075481565b600080600080600080600080613422614c81565b89600260006003600084815260200190815260200160002060009054906101000a900473ffffffffffffffffffffffffffffffffffffffff1673ffffffffffffffffffffffffffffffffffffffff1673ffffffffffffffffffffffffffffffffffffffff168152602001908152602001600020600082815260200190815260200160002060070160169054906101000a900460ff16151561352b576040517f08c379a00000000000000000000000000000000000000000000000000000000081526004018080602001828103825260128152602001807f50726f64756374206e6f7420666f756e642e000000000000000000000000000081525060200191505060405180910390fd5b60026000600360008e815260200190815260200160002060009054906101000a900473ffffffffffffffffffffffffffffffffffffffff1673ffffffffffffffffffffffffffffffffffffffff1673ffffffffffffffffffffffffffffffffffffffff16815260200190815260200160002060008c815260200190815260200160002061016060405190810160405290816000820154815260200160018201546000191660001916815260200160028201546000191660001916815260200160038201546000191660001916815260200160048201546000191660001916815260200160058201548152602001600682015481526020016007820160009054906101000a900473ffffffffffffffffffffffffffffffffffffffff1673ffffffffffffffffffffffffffffffffffffffff1673ffffffffffffffffffffffffffffffffffffffff1681526020016007820160149054906101000a900460ff16600181111561369557fe5b60018111156136a057fe5b81526020016007820160159054906101000a900460ff1660048111156136c257fe5b60048111156136cd57fe5b81526020016007820160169054906101000a900460ff16151515158152505091508160000151826020015183604001518460a001518560c001518660e00151876101000151886101200151995099509950995099509950995099505050919395975091939597565b80600260006003600084815260200190815260200160002060009054906101000a900473ffffffffffffffffffffffffffffffffffffffff1673ffffffffffffffffffffffffffffffffffffffff1673ffffffffffffffffffffffffffffffffffffffff168152602001908152602001600020600082815260200190815260200160002060070160169054906101000a900460ff16151561383e576040517f08c379a00000000000000000000000000000000000000000000000000000000081526004018080602001828103825260128152602001807f50726f64756374206e6f7420666f756e642e000000000000000000000000000081525060200191505060405180910390fd5b613846614697565b6006600083815260200190815260200160002060009054906101000a900473ffffffffffffffffffffffffffffffffffffffff1673ffffffffffffffffffffffffffffffffffffffff1663a97d1b10336040518263ffffffff167c0100000000000000000000000000000000000000000000000000000000028152600401808273ffffffffffffffffffffffffffffffffffffffff1673ffffffffffffffffffffffffffffffffffffffff168152602001915050600060405180830381600087803b15801561391457600080fd5b505af1158015613928573d6000803e3d6000fd5b505050507f1b8c857604219732932523daa94d7d5825f8c4870cbed3a968d66ebfc6fc8033823360405180807f416d6f756e7420726566756e64656420746f20427579657200000000000000008152506020018381526020018273ffffffffffffffffffffffffffffffffffffffff1673ffffffffffffffffffffffffffffffffffffffff1681526020019250505060405180910390a16139c76146ef565b5050565b3373ffffffffffffffffffffffffffffffffffffffff1660016000600460003373ffffffffffffffffffffffffffffffffffffffff1673ffffffffffffffffffffffffffffffffffffffff16815260200190815260200160002054815260200190815260200160002060000160009054906101000a900473ffffffffffffffffffffffffffffffffffffffff1673ffffffffffffffffffffffffffffffffffffffff16141515613ae3576040517f08c379a000000000000000000000000000000000000000000000000000000000815260040180806020018281038252601c8152602001807f596f7520617265206e6f74207468652073746f7265206f776e6572210000000081525060200191505060405180910390fd5b81600260006003600084815260200190815260200160002060009054906101000a900473ffffffffffffffffffffffffffffffffffffffff1673ffffffffffffffffffffffffffffffffffffffff1673ffffffffffffffffffffffffffffffffffffffff168152602001908152602001600020600082815260200190815260200160002060070160169054906101000a900460ff161515613bec576040517f08c379a00000000000000000000000000000000000000000000000000000000081526004018080602001828103825260128152602001807f50726f64756374206e6f7420666f756e642e000000000000000000000000000081525060200191505060405180910390fd5b816000600102816000191614151515613c6d576040517f08c379a000000000000000000000000000000000000000000000000000000000815260040180806020018281038252601a8152602001807f50726f6475637420696d616765206973206d616e6461746f727900000000000081525060200191505060405180910390fd5b613c75614697565b82600260006003600088815260200190815260200160002060009054906101000a900473ffffffffffffffffffffffffffffffffffffffff1673ffffffffffffffffffffffffffffffffffffffff1673ffffffffffffffffffffffffffffffffffffffff168152602001908152602001600020600086815260200190815260200160002060030181600019169055507f2eca3d53bb2aeffd4263313dde458b2ce0d3b84c0f273eb4c8cb790b637d80dc8460405180807f50726f6475637420696d61676520757064617465643a0000000000000000000081525060200182815260200191505060405180910390a1613d6b6146ef565b50505050565b60085481565b60066020528060005260406000206000915054906101000a900473ffffffffffffffffffffffffffffffffffffffff1681565b6000809054906101000a900473ffffffffffffffffffffffffffffffffffffffff1673ffffffffffffffffffffffffffffffffffffffff163373ffffffffffffffffffffffffffffffffffffffff16141515613e6e576040517f08c379a00000000000000000000000000000000000000000000000000000000081526004018080602001828103825260208152602001807f53656e646572206973206e6f742074686520636f6e7472616374206f776e657281525060200191505060405180910390fd5b613e7781614b87565b50565b3373ffffffffffffffffffffffffffffffffffffffff1660016000600460003373ffffffffffffffffffffffffffffffffffffffff1673ffffffffffffffffffffffffffffffffffffffff16815260200190815260200160002054815260200190815260200160002060000160009054906101000a900473ffffffffffffffffffffffffffffffffffffffff1673ffffffffffffffffffffffffffffffffffffffff16141515613f92576040517f08c379a000000000000000000000000000000000000000000000000000000000815260040180806020018281038252601c8152602001807f596f7520617265206e6f74207468652073746f7265206f776e6572210000000081525060200191505060405180910390fd5b81600260006003600084815260200190815260200160002060009054906101000a900473ffffffffffffffffffffffffffffffffffffffff1673ffffffffffffffffffffffffffffffffffffffff1673ffffffffffffffffffffffffffffffffffffffff168152602001908152602001600020600082815260200190815260200160002060070160169054906101000a900460ff16151561409b576040517f08c379a00000000000000000000000000000000000000000000000000000000081526004018080602001828103825260128152602001807f50726f64756374206e6f7420666f756e642e000000000000000000000000000081525060200191505060405180910390fd5b81600060010281600019161415151561411c576040517f08c379a00000000000000000000000000000000000000000000000000000000081526004018080602001828103825260208152602001807f50726f64756374206465736372697074696f6e206973206d616e6461746f727981525060200191505060405180910390fd5b614124614697565b82600260006003600088815260200190815260200160002060009054906101000a900473ffffffffffffffffffffffffffffffffffffffff1673ffffffffffffffffffffffffffffffffffffffff1673ffffffffffffffffffffffffffffffffffffffff168152602001908152602001600020600086815260200190815260200160002060040181600019169055507f2eca3d53bb2aeffd4263313dde458b2ce0d3b84c0f273eb4c8cb790b637d80dc8460405180807f50726f64756374206465736372697074696f6e20757064617465643a0000000081525060200182815260200191505060405180910390a161421a6146ef565b50505050565b806001600481111561422e57fe5b600260006003600085815260200190815260200160002060009054906101000a900473ffffffffffffffffffffffffffffffffffffffff1673ffffffffffffffffffffffffffffffffffffffff1673ffffffffffffffffffffffffffffffffffffffff168152602001908152602001600020600083815260200190815260200160002060070160159054906101000a900460ff1660048111156142cd57fe5b141515614342576040517f08c379a00000000000000000000000000000000000000000000000000000000081526004018080602001828103825260198152602001807f50726f64756374206e6f74206f6e20536f6c642053746174650000000000000081525060200191505060405180910390fd5b81600260006003600084815260200190815260200160002060009054906101000a900473ffffffffffffffffffffffffffffffffffffffff1673ffffffffffffffffffffffffffffffffffffffff1673ffffffffffffffffffffffffffffffffffffffff168152602001908152602001600020600082815260200190815260200160002060070160169054906101000a900460ff16151561444b576040517f08c379a00000000000000000000000000000000000000000000000000000000081526004018080602001828103825260128152602001807f50726f64756374206e6f7420666f756e642e000000000000000000000000000081525060200191505060405180910390fd5b6003600084815260200190815260200160002060009054906101000a900473ffffffffffffffffffffffffffffffffffffffff168073ffffffffffffffffffffffffffffffffffffffff163373ffffffffffffffffffffffffffffffffffffffff16141515614548576040517f08c379a000000000000000000000000000000000000000000000000000000000815260040180806020018281038252602b8152602001807f43616c6c6572206e6f7420617574686f72697a656420746f207573652074686981526020017f732066756e6374696f6e2e00000000000000000000000000000000000000000081525060400191505060405180910390fd5b614550614697565b60028060006003600088815260200190815260200160002060009054906101000a900473ffffffffffffffffffffffffffffffffffffffff1673ffffffffffffffffffffffffffffffffffffffff1673ffffffffffffffffffffffffffffffffffffffff168152602001908152602001600020600086815260200190815260200160002060070160156101000a81548160ff021916908360048111156145f257fe5b02179055507fd20eec26035caa9af9280b888a9718bd7100159f6daec74e8cddd8e095df01da8460405180807f50726f647563742073686970706564000000000000000000000000000000000081525060200182815260200191505060405180910390a161465e6146ef565b50505050565b60036020528060005260406000206000915054906101000a900473ffffffffffffffffffffffffffffffffffffffff1681565b600060149054906101000a900460ff16156146b157600080fd5b6001600060146101000a81548160ff021916908315150217905550565b60008082840190508381101515156146e557600080fd5b8091505092915050565b60008060146101000a81548160ff021916908315150217905550565b60008083831115151561471d57600080fd5b82840390508091505092915050565b60007f78cbc22cd4d017cb607cd6ebb34d23bd8f66e56f4cdbaf4e5c7106e1a49f73378383600080604051808581526020018473ffffffffffffffffffffffffffffffffffffffff1673ffffffffffffffffffffffffffffffffffffffff1681526020018373ffffffffffffffffffffffffffffffffffffffff1681526020018273ffffffffffffffffffffffffffffffffffffffff16815260200194505050505060405180910390a18284836003600088815260200190815260200160002060009054906101000a900473ffffffffffffffffffffffffffffffffffffffff166001600060046000600360008d815260200190815260200160002060009054906101000a900473ffffffffffffffffffffffffffffffffffffffff1673ffffffffffffffffffffffffffffffffffffffff1673ffffffffffffffffffffffffffffffffffffffff16815260200190815260200160002054815260200190815260200160002060030160009054906101000a900473ffffffffffffffffffffffffffffffffffffffff166148be614d16565b808581526020018473ffffffffffffffffffffffffffffffffffffffff1673ffffffffffffffffffffffffffffffffffffffff1681526020018373ffffffffffffffffffffffffffffffffffffffff1673ffffffffffffffffffffffffffffffffffffffff1681526020018273ffffffffffffffffffffffffffffffffffffffff1673ffffffffffffffffffffffffffffffffffffffff1681526020019450505050506040518091039082f08015801561497c573d6000803e3d6000fd5b5090509050806006600086815260200190815260200160002060006101000a81548173ffffffffffffffffffffffffffffffffffffffff021916908373ffffffffffffffffffffffffffffffffffffffff1602179055507f78cbc22cd4d017cb607cd6ebb34d23bd8f66e56f4cdbaf4e5c7106e1a49f733784836003600088815260200190815260200160002060009054906101000a900473ffffffffffffffffffffffffffffffffffffffff166001600060046000600360008d815260200190815260200160002060009054906101000a900473ffffffffffffffffffffffffffffffffffffffff1673ffffffffffffffffffffffffffffffffffffffff1673ffffffffffffffffffffffffffffffffffffffff16815260200190815260200160002054815260200190815260200160002060030160009054906101000a900473ffffffffffffffffffffffffffffffffffffffff16604051808581526020018473ffffffffffffffffffffffffffffffffffffffff1673ffffffffffffffffffffffffffffffffffffffff1681526020018373ffffffffffffffffffffffffffffffffffffffff1673ffffffffffffffffffffffffffffffffffffffff1681526020018273ffffffffffffffffffffffffffffffffffffffff1673ffffffffffffffffffffffffffffffffffffffff16815260200194505050505060405180910390a150505050565b600073ffffffffffffffffffffffffffffffffffffffff168173ffffffffffffffffffffffffffffffffffffffff1614151515614bc357600080fd5b8073ffffffffffffffffffffffffffffffffffffffff166000809054906101000a900473ffffffffffffffffffffffffffffffffffffffff1673ffffffffffffffffffffffffffffffffffffffff167f8be0079c531659141344cd1fd0a4f28419497f9722a3daafe3b4186f6b6457e060405160405180910390a3806000806101000a81548173ffffffffffffffffffffffffffffffffffffffff021916908373ffffffffffffffffffffffffffffffffffffffff16021790555050565b6101606040519081016040528060008152602001600080191681526020016000801916815260200160008019168152602001600080191681526020016000815260200160008152602001600073ffffffffffffffffffffffffffffffffffffffff16815260200160006001811115614cf557fe5b815260200160006004811115614d0757fe5b81526020016000151581525090565b6040516111b280614d2783390190560060806040526040516080806111b28339810180604052810190808051906020019092919080519060200190929190805190602001909291908051906020019092919050505083600481905550826000806101000a81548173ffffffffffffffffffffffffffffffffffffffff021916908373ffffffffffffffffffffffffffffffffffffffff16021790555081600160006101000a81548173ffffffffffffffffffffffffffffffffffffffff021916908373ffffffffffffffffffffffffffffffffffffffff16021790555080600260006101000a81548173ffffffffffffffffffffffffffffffffffffffff021916908373ffffffffffffffffffffffffffffffffffffffff1602179055506000600b60006101000a81548160ff0219169083151502179055503460058190555033600360006101000a81548173ffffffffffffffffffffffffffffffffffffffff021916908373ffffffffffffffffffffffffffffffffffffffff1602179055505050505061102f806101836000396000f3006080604052600436106100c5576000357c0100000000000000000000000000000000000000000000000000000000900463ffffffff16806308551a53146100ca5780630bda4dbf1461012157806351cff8d91461014c57806358aad10b1461018f5780635a8d2e9d146101d25780637150d8ae146102af5780638da5cb5b14610306578063a97d1b101461035d578063aa8c217c146103a0578063b8d08db2146103cb578063c5ce3911146103f6578063d1a52e3014610421578063fe25e00a14610450575b600080fd5b3480156100d657600080fd5b506100df6104a7565b604051808273ffffffffffffffffffffffffffffffffffffffff1673ffffffffffffffffffffffffffffffffffffffff16815260200191505060405180910390f35b34801561012d57600080fd5b506101366104cd565b6040518082815260200191505060405180910390f35b34801561015857600080fd5b5061018d600480360381019080803573ffffffffffffffffffffffffffffffffffffffff1690602001909291905050506104d3565b005b34801561019b57600080fd5b506101d0600480360381019080803573ffffffffffffffffffffffffffffffffffffffff169060200190929190505050610672565b005b3480156101de57600080fd5b506101e7610a84565b604051808873ffffffffffffffffffffffffffffffffffffffff1673ffffffffffffffffffffffffffffffffffffffff1681526020018773ffffffffffffffffffffffffffffffffffffffff1673ffffffffffffffffffffffffffffffffffffffff1681526020018673ffffffffffffffffffffffffffffffffffffffff1673ffffffffffffffffffffffffffffffffffffffff1681526020018581526020018415151515815260200183815260200182815260200197505050505050505060405180910390f35b3480156102bb57600080fd5b506102c4610b3c565b604051808273ffffffffffffffffffffffffffffffffffffffff1673ffffffffffffffffffffffffffffffffffffffff16815260200191505060405180910390f35b34801561031257600080fd5b5061031b610b61565b604051808273ffffffffffffffffffffffffffffffffffffffff1673ffffffffffffffffffffffffffffffffffffffff16815260200191505060405180910390f35b34801561036957600080fd5b5061039e600480360381019080803573ffffffffffffffffffffffffffffffffffffffff169060200190929190505050610b87565b005b3480156103ac57600080fd5b506103b5610f97565b6040518082815260200191505060405180910390f35b3480156103d757600080fd5b506103e0610f9d565b6040518082815260200191505060405180910390f35b34801561040257600080fd5b5061040b610fa3565b6040518082815260200191505060405180910390f35b34801561042d57600080fd5b50610436610fa9565b604051808215151515815260200191505060405180910390f35b34801561045c57600080fd5b50610465610fbc565b604051808273ffffffffffffffffffffffffffffffffffffffff1673ffffffffffffffffffffffffffffffffffffffff16815260200191505060405180910390f35b600160009054906101000a900473ffffffffffffffffffffffffffffffffffffffff1681565b60075481565b600080600a60008473ffffffffffffffffffffffffffffffffffffffff1673ffffffffffffffffffffffffffffffffffffffff1681526020019081526020016000205411151561052257600080fd5b600360009054906101000a900473ffffffffffffffffffffffffffffffffffffffff1673ffffffffffffffffffffffffffffffffffffffff163373ffffffffffffffffffffffffffffffffffffffff1614151561057e57600080fd5b60011515600b60009054906101000a900460ff1615151415156105a057600080fd5b600a60008373ffffffffffffffffffffffffffffffffffffffff1673ffffffffffffffffffffffffffffffffffffffff1681526020019081526020016000205490506000600a60008473ffffffffffffffffffffffffffffffffffffffff1673ffffffffffffffffffffffffffffffffffffffff168152602001908152602001600020819055508173ffffffffffffffffffffffffffffffffffffffff166108fc829081150290604051600060405180830381858888f1935050505015801561066d573d6000803e3d6000fd5b505050565b60001515600b60009054906101000a900460ff16151514151561069457600080fd5b600360009054906101000a900473ffffffffffffffffffffffffffffffffffffffff1673ffffffffffffffffffffffffffffffffffffffff163373ffffffffffffffffffffffffffffffffffffffff161415156106f057600080fd5b6000809054906101000a900473ffffffffffffffffffffffffffffffffffffffff1673ffffffffffffffffffffffffffffffffffffffff168173ffffffffffffffffffffffffffffffffffffffff1614806107985750600160009054906101000a900473ffffffffffffffffffffffffffffffffffffffff1673ffffffffffffffffffffffffffffffffffffffff168173ffffffffffffffffffffffffffffffffffffffff16145b806107f05750600260009054906101000a900473ffffffffffffffffffffffffffffffffffffffff1673ffffffffffffffffffffffffffffffffffffffff168173ffffffffffffffffffffffffffffffffffffffff16145b15156107fb57600080fd5b60011515600860008373ffffffffffffffffffffffffffffffffffffffff1673ffffffffffffffffffffffffffffffffffffffff16815260200190815260200160002060009054906101000a900460ff1615151415151561085b57600080fd5b6001600860008373ffffffffffffffffffffffffffffffffffffffff1673ffffffffffffffffffffffffffffffffffffffff16815260200190815260200160002060006101000a81548160ff0219169083151502179055506108c96001600654610fe290919063ffffffff16565b600681905550600260065414156109d157610950600554600a6000600160009054906101000a900473ffffffffffffffffffffffffffffffffffffffff1673ffffffffffffffffffffffffffffffffffffffff1673ffffffffffffffffffffffffffffffffffffffff16815260200190815260200160002054610fe290919063ffffffff16565b600a6000600160009054906101000a900473ffffffffffffffffffffffffffffffffffffffff1673ffffffffffffffffffffffffffffffffffffffff1673ffffffffffffffffffffffffffffffffffffffff168152602001908152602001600020819055506001600b60006101000a81548160ff0219169083151502179055505b7f8018404367c87bd0af9086591ec01abe0965528879e8489f9ab585d08da971f28160065460055460405180806020018573ffffffffffffffffffffffffffffffffffffffff1673ffffffffffffffffffffffffffffffffffffffff168152602001848152602001838152602001828103825260198152602001807f416d6f756e742072656c656173656420746f2053656c6c65720000000000000081525060200194505050505060405180910390a150565b60008060008060008060008060009054906101000a900473ffffffffffffffffffffffffffffffffffffffff16600160009054906101000a900473ffffffffffffffffffffffffffffffffffffffff16600260009054906101000a900473ffffffffffffffffffffffffffffffffffffffff163073ffffffffffffffffffffffffffffffffffffffff1631600b60009054906101000a900460ff16600654600754965096509650965096509650965090919293949596565b6000809054906101000a900473ffffffffffffffffffffffffffffffffffffffff1681565b600360009054906101000a900473ffffffffffffffffffffffffffffffffffffffff1681565b60001515600b60009054906101000a900460ff161515141515610ba957600080fd5b600360009054906101000a900473ffffffffffffffffffffffffffffffffffffffff1673ffffffffffffffffffffffffffffffffffffffff163373ffffffffffffffffffffffffffffffffffffffff16141515610c0557600080fd5b6000809054906101000a900473ffffffffffffffffffffffffffffffffffffffff1673ffffffffffffffffffffffffffffffffffffffff168173ffffffffffffffffffffffffffffffffffffffff161480610cad5750600160009054906101000a900473ffffffffffffffffffffffffffffffffffffffff1673ffffffffffffffffffffffffffffffffffffffff168173ffffffffffffffffffffffffffffffffffffffff16145b80610d055750600260009054906101000a900473ffffffffffffffffffffffffffffffffffffffff1673ffffffffffffffffffffffffffffffffffffffff168173ffffffffffffffffffffffffffffffffffffffff16145b1515610d1057600080fd5b60011515600960008373ffffffffffffffffffffffffffffffffffffffff1673ffffffffffffffffffffffffffffffffffffffff16815260200190815260200160002060009054906101000a900460ff16151514151515610d7057600080fd5b6001600960008373ffffffffffffffffffffffffffffffffffffffff1673ffffffffffffffffffffffffffffffffffffffff16815260200190815260200160002060006101000a81548160ff021916908315150217905550610dde6001600754610fe290919063ffffffff16565b60078190555060026007541415610ee457610e64600554600a60008060009054906101000a900473ffffffffffffffffffffffffffffffffffffffff1673ffffffffffffffffffffffffffffffffffffffff1673ffffffffffffffffffffffffffffffffffffffff16815260200190815260200160002054610fe290919063ffffffff16565b600a60008060009054906101000a900473ffffffffffffffffffffffffffffffffffffffff1673ffffffffffffffffffffffffffffffffffffffff1673ffffffffffffffffffffffffffffffffffffffff168152602001908152602001600020819055506001600b60006101000a81548160ff0219169083151502179055505b7f4d6b0c80dcb6b5617d0336e39102710ec6a6475074e9787e0024d5170e3c95c88160075460055460405180806020018573ffffffffffffffffffffffffffffffffffffffff1673ffffffffffffffffffffffffffffffffffffffff168152602001848152602001838152602001828103825260188152602001807f416d6f756e7420726566756e64656420746f204275796572000000000000000081525060200194505050505060405180910390a150565b60055481565b60065481565b60045481565b600b60009054906101000a900460ff1681565b600260009054906101000a900473ffffffffffffffffffffffffffffffffffffffff1681565b6000808284019050838110151515610ff957600080fd5b80915050929150505600a165627a7a723058207905c01be97b050b898154bc050aa24ce4c16a4351ede4f3f9e8212aea31360d0029a165627a7a723058206dd04dfe6b8efab2e949332b96f0ef7b5f941c7c160ab1a04bc9e0616197d1990029",
  "source": "pragma solidity ^0.4.24;\n\nimport \"./zeppelin/ownership/Ownable.sol\";\nimport \"./ReentryProtector.sol\";\nimport \"./zeppelin/SafeMath.sol\";\nimport \"./Escrow.sol\";\n\n\n/** @title Ecommerce Contract */\ncontract Ecommerce is Ownable, ReentryProtector {\n    \n    using SafeMath for uint256;\n\n    function  addStore(\n        bytes32 _name, \n        bytes32 _email,\n        address _arbiter,\n        bytes32 _storeFrontImage,\n        address _sellerAddress\n    )\n        external \n        payable\n        notHaveStore(_sellerAddress)\n        returns (bool)\n    {\n        externalEnter();\n        storesCount = storesCount.add(1);\n        storesById[storesCount] = Store(_sellerAddress, _name, _email, _arbiter, _storeFrontImage, 0/*msg.value*/, 0);\n        storesBySellers[_sellerAddress] = storesCount;\n        externalLeave();\n        return true;\n    }\n\n    // ===================================================\n    // Fallback\n    // ===================================================        \n    // this contract will accept any deposit from any person/contract as a donnation when user is creating a store\n    // the balance will be added to the EcommerceFactory balance\n    function () public payable {\n        emit LogDonnationReceived(msg.sender, msg.value);\n    }\n    \n    mapping (uint => Store) public storesById;                   // Stores by id\n    mapping (address => mapping(uint => Product)) public stores; // products by stores\n    mapping (uint => address) public storesByProductId;          // seller address by product id\n    mapping (address => uint) public storesBySellers;            // store by seller address, used to prevent more than one store per user\n    mapping (address => uint) public productCountByStore;        // product count by store\n    mapping (uint => address) public productsEscrow;             // product escrow control\n\n    uint public storesCount;\n    uint public productCount;\n\n    struct Store {\n        address storeAddress;\n        bytes32 name;\n        bytes32 email;\n        address arbiter;\n        bytes32 storeFrontImage;\n        uint balance;\n        uint productCount;\n    }\n\n    enum ProductCondition {New , Used}\n    enum ProductState {ForSale, Sold, Shipped, Received, Deleted}\n    struct Product {\n        uint id;\n        bytes32 name;//\n        bytes32 category;//\n        bytes32 imageLink;//\n        bytes32 descLink;//\n        uint startTime;//\n        uint price;//\n        address buyer;\n        ProductCondition productCondition;//\n        ProductState productState;//\n        bool exists;\n    }\n    \n    modifier notHaveStore(address sellerAddress) { \n        require(!(sellerAddress == storesById[storesBySellers[sellerAddress]].storeAddress), \"User already has a store\" ); \n        _;\n    }\n    modifier onlyStoreOwner() { \n        require(storesById[storesBySellers[msg.sender]].storeAddress == msg.sender, \"You are not the store owner!\" ); \n        _;\n    }\n    modifier requireProductName(bytes32 _name) { require(!(_name == 0x0), \"Product name is mandatory\"); _;}\n    modifier requireProductCategory(bytes32 _productCategory) { require(!(_productCategory == 0x0), \"Product category is mandatory\"); _;}\n    modifier requireDescLink(bytes32 _descLink) { require(!(_descLink == 0x0), \"Product description is mandatory\"); _;}\n    modifier requireImageLink(bytes32 _imageLink) { require(!(_imageLink == 0x0), \"Product image is mandatory\"); _;}\n    modifier requireStartTime(uint _startTime) { require(_startTime > 0 , \"Listing start time is mandatory\"); _;}\n    modifier requirePrice(uint _price) { require(_price > 0 , \"Product price is mandatory\"); _;}\n    modifier productExists(uint _id) { require( stores[storesByProductId[_id]][_id].exists, \"Product not found.\"); _; }\n    modifier verifyCaller (address _caller) { require(msg.sender == _caller, \"Caller not authorized to use this function.\"); _;}\n    \n    modifier validProductCondition(uint _productCondition) { \n        require(ProductCondition(_productCondition) == ProductCondition.New || ProductCondition(_productCondition) == ProductCondition.Used, \"Product name is mandatory\"); \n        _;\n    }\n    modifier forSale (uint _id) { \n        require(stores[storesByProductId[_id]][_id].productState == ProductState.ForSale, \"Product not on Sale state\"); \n        _; \n    }\n    modifier sold (uint _id) { \n        require(stores[storesByProductId[_id]][_id].productState == ProductState.Sold, \"Product not on Sold State\"); \n        _;\n    }\n    modifier shipped (uint _id) { \n        require(stores[storesByProductId[_id]][_id].productState == ProductState.Shipped, \"Product not on Shipped state\"); \n        _;\n    }\n    modifier received (uint _id) { \n        require(stores[storesByProductId[_id]][_id].productState == ProductState.Received, \"Product not on Received state\"); \n        _;\n    }\n    modifier paidEnough(uint _price) { \n        require(msg.value >= _price, \"Not paid enough for the product\"); \n        _;\n    }\n    modifier checkValue(uint _id) {\n        // refund buyer in case msg.value > product price\n        _;\n        uint _price = stores[storesByProductId[_id]][_id].price;\n        uint _amountToRefund = msg.value.sub(_price);\n        stores[storesByProductId[_id]][_id].buyer.transfer(_amountToRefund);\n        emit LogCheckValue(\"Amount to refund\", _amountToRefund);\n    }\n\n    \n    event LogProductRemoved(bytes32 message, uint productCount);\n    event LogDonnationReceived(address sender, uint value);\n    event LogForSale(bytes32 message, uint id);\n    event LogSold(bytes32 message, uint id);\n    event LogShipped(bytes32 message, uint id);\n    event LogReceived(bytes32 message, uint id);\n    event LogCheckValue(bytes32 message, uint _amount);\n    event LogEscrowCreated(uint id, address buyer, address seller, address arbiter);\n    event LogReleaseAmountToSeller(bytes32 message, uint productId, address caller);\n    event LogRefundAmountToBuyer(bytes32 message, uint productId, address caller);\n    event LogWithdraw(bytes32 message, uint productId, address caller);\n    event LogProductUpdated(bytes32 message, uint productId);\n\n\n   /** @dev Add product to stores mapping - imageLink and descLink are initialized with blanks,\n      * @dev this function should be used in conjunt with addProductDetail, to update imageLink and descLink\n      * @param _name product name\n      * @param _category product category\n      * @param _startTime listing start time\n      * @param _price product price in Wei \n      * @param _productCondition product condition\n      * @return product index\n      */    \n    function addProduct(\n        bytes32 _name, \n        bytes32 _category, \n        uint _startTime, \n        uint _price, \n        uint _productCondition\n    ) \n        external \n        onlyStoreOwner\n        requireProductName(_name)\n        requireProductCategory(_category)\n        requireStartTime(_startTime)\n        requirePrice(_price)\n        validProductCondition(_productCondition)\n    {\n        externalEnter();\n        \n        productCount = productCount.add(1);\n\n        Product memory product = Product(\n            productCount,\n            _name, \n            _category, \n            \"empty\", \n            \"empty\", \n            _startTime, \n            _price, \n            0x0, \n            ProductCondition(_productCondition),  \n            ProductState.ForSale,\n            true\n        );\n\n        stores[msg.sender][productCount] = product; \n        storesByProductId[productCount] = msg.sender;\n\n        // update product count by store\n        productCountByStore[msg.sender] = productCountByStore[msg.sender].add(1);        \n        emit LogForSale(\"Product for Sale:\", productCountByStore[msg.sender]);\n        externalLeave();\n    }\n\n     /** @dev Update product image\n      * @param _id  product Id\n      * @param _imageLink IFPS address of the image\n      */    \n    function updateProductImage(\n        uint _id,\n        bytes32 _imageLink\n    ) \n        external \n        onlyStoreOwner\n        productExists(_id)\n        requireImageLink(_imageLink)\n    {\n        externalEnter();\n        stores[storesByProductId[_id]][_id].imageLink = _imageLink;\n        emit LogProductUpdated(\"Product image updated:\", _id);\n        externalLeave();\n    }\n\n     /** @dev Update product description\n      * @param _id  product Id\n      * @param _descLink IFPS address of product description\n      */    \n    function updateProductDesc(\n        uint _id,\n        bytes32 _descLink\n    ) \n        external \n        onlyStoreOwner\n        productExists(_id)\n        requireDescLink(_descLink)\n    {\n        externalEnter();\n        stores[storesByProductId[_id]][_id].descLink = _descLink;\n        emit LogProductUpdated(\"Product description updated:\", _id);\n        externalLeave();\n    }\n\n\n    /** @dev Update product state to Deleted\n      * @param _id product id\n      */    \n    function removeProduct(uint _id) \n        external \n        onlyStoreOwner\n        productExists(_id)\n        forSale(_id)\n    {\n        externalEnter();\n        stores[msg.sender][_id].productState = ProductState.Deleted;\n        productCountByStore[msg.sender] = productCountByStore[msg.sender].sub(1);\n        emit LogProductRemoved(\"Product removed:\", _id);\n        externalLeave();\n    }\n    \n    \n    /** @dev Get product details \n      * @param _id product index\n      * @return Product struct\n      */    \n    function getProduct(uint _id) \n        external \n        productExists(_id)\n        view \n        returns(\n            uint id, \n            bytes32 name, \n            bytes32 category, \n            uint startTime, \n            uint price, \n            address buyer, \n            ProductCondition condition,\n            ProductState productState\n        ) \n    {\n        Product memory product = stores[storesByProductId[_id]][_id]; // load product from memory\n        return (\n            product.id, \n            product.name, \n            product.category, \n            product.startTime,\n            product.price, \n            product.buyer, \n            product.productCondition,\n            product.productState\n        );\n    }\n\n\n    /** @dev Get product IFPS addresses for details \n      * @param _id product index\n      * @return Product image link , product Desciption link\n      */    \n    function getProductDetails(uint _id) \n        external \n        productExists(_id)\n        view \n        returns(\n            bytes32 imageLink, \n            bytes32 descLink\n        ) \n    {\n        Product memory product = stores[storesByProductId[_id]][_id]; // load product from memory\n        return (\n            product.imageLink, \n            product.descLink\n        );\n    }\n\n    \n    /** @dev Buy a product \n      * @param _id product name\n      * @return product index\n      */    \n    function buyProduct(uint _id) \n        external \n        payable \n        productExists(_id)\n        forSale(_id)\n        paidEnough(stores[storesByProductId[_id]][_id].price)\n        checkValue(_id)\n\n    {\n        \n        externalEnter();\n\n        stores[storesByProductId[_id]][_id].buyer = msg.sender;\n        stores[storesByProductId[_id]][_id].productState = ProductState.Sold;\n        emit LogSold(\"Product sold\", _id);\n\n        //function initEscrow(uint _id, uint _value, address _buyer)\n        \n        initEscrow(_id, stores[storesByProductId[_id]][_id].price, msg.sender); // create Escrow contract       \n        \n        externalLeave();\n    }\n\n\n    /** @dev set product state to Shipped\n     * @param _id product index\n     */ \n    function shipItem(uint _id) \n        external \n        sold(_id) \n        productExists(_id) \n        verifyCaller(storesByProductId[_id]) \n    {\n        externalEnter();\n        stores[storesByProductId[_id]][_id].productState = ProductState.Shipped;\n        emit LogShipped(\"Product shipped\", _id);\n        externalLeave();\n    }\n\n    /** @dev set product state to Received\n     * @param _id product index\n     */ \n    function receiveItem(uint _id) \n        external \n        shipped(_id) \n        productExists(_id) \n        verifyCaller(stores[storesByProductId[_id]][_id].buyer) \n    {\n        externalEnter();\n        stores[storesByProductId[_id]][_id].productState = ProductState.Received;\n        emit LogReceived(\"Product received\", _id);\n        externalLeave();\n    }\n    \n    \n    /** @dev get product escrow details\n      * @param _id product index\n      * @return Escrow contract details\n      */    \n    function escrowDetails(uint _id)\n        external\n        productExists(_id)\n        view \n        returns (address, address, address, uint, bool, uint, uint)\n    {\n        return Escrow(productsEscrow[_id]).escrowDetails();\n    }\n    \n    \n    /** @dev Function to release amount to the seller\n      * @param _id product index\n      */      \n    function releaseAmountToSeller(uint _id) \n        external \n        productExists(_id)\n    {\n        externalEnter();\n        Escrow(productsEscrow[_id]).releaseAmountToSeller(msg.sender);\n        emit LogReleaseAmountToSeller(\"Amount released to Seller\", _id, msg.sender);\n        externalLeave();\n    }\n\n\n    /** @dev Function to refund amount to buyer\n      * @param _id product index\n      * @return product index\n      */      \n    function refundAmountToBuyer(uint _id)\n        external \n        productExists(_id)\n    {\n        externalEnter();\n        Escrow(productsEscrow[_id]).refundAmountToBuyer(msg.sender);\n        emit LogRefundAmountToBuyer(\"Amount refunded to Buyer\", _id, msg.sender);\n        externalLeave();\n    }\n    \n    /** @dev Function to refund amount to buyer\n      * @param _id product index\n      * @return product index\n      */      \n    function withdraw(uint _id)\n        external \n        productExists(_id)\n    {\n        externalEnter();\n        Escrow(productsEscrow[_id]).withdraw(msg.sender);\n        emit LogWithdraw(\"Withdraw request\", _id, msg.sender);\n        externalLeave();\n    }\n\n    /** @dev internal function to instantiate a escrow contract for the purchased product\n     * @param _id product index\n     * @param _value product value\n     * @param _buyer buyer address\n     */ \n    function initEscrow(uint _id, uint _value, address _buyer)\n        internal\n    {\n        // create escrow contract\n        emit LogEscrowCreated(_value, _buyer, 0x0, 0x0);\n\n        Escrow escrow = (new Escrow).value(_value)(\n            _id, \n            _buyer,\n            storesByProductId[_id],  //seller\n            storesById[storesBySellers[storesByProductId[_id]]].arbiter //load arbiter from the Store\n        );\n        productsEscrow[_id] = escrow;\n        \n        emit LogEscrowCreated(_id, _buyer, storesByProductId[_id], storesById[storesBySellers[storesByProductId[_id]]].arbiter);\n\n    }\n    \n}",
  "sourcePath": "/Users/rafaeldias/dev/workspaceSolidity/markEth/contracts/Ecommerce.sol",
  "compiler": {
    "name": "solc",
    "version": "0.4.24+commit.e67f0147.Emscripten.clang"
  },
  "schemaVersion": "2.0.1",
  "updatedAt": "2018-09-04T15:57:49.234Z"
}