{
  "contractName": "Escrow",
  "abi": [
    {
      "constant": true,
      "inputs": [],
      "name": "seller",
      "outputs": [
        {
          "name": "",
          "type": "address"
        }
      ],
      "payable": false,
      "stateMutability": "view",
      "type": "function"
    },
    {
      "constant": true,
      "inputs": [],
      "name": "refundCount",
      "outputs": [
        {
          "name": "",
          "type": "uint256"
        }
      ],
      "payable": false,
      "stateMutability": "view",
      "type": "function"
    },
    {
      "constant": true,
      "inputs": [],
      "name": "buyer",
      "outputs": [
        {
          "name": "",
          "type": "address"
        }
      ],
      "payable": false,
      "stateMutability": "view",
      "type": "function"
    },
    {
      "constant": true,
      "inputs": [],
      "name": "owner",
      "outputs": [
        {
          "name": "",
          "type": "address"
        }
      ],
      "payable": false,
      "stateMutability": "view",
      "type": "function"
    },
    {
      "constant": true,
      "inputs": [],
      "name": "amount",
      "outputs": [
        {
          "name": "",
          "type": "uint256"
        }
      ],
      "payable": false,
      "stateMutability": "view",
      "type": "function"
    },
    {
      "constant": true,
      "inputs": [],
      "name": "releaseCount",
      "outputs": [
        {
          "name": "",
          "type": "uint256"
        }
      ],
      "payable": false,
      "stateMutability": "view",
      "type": "function"
    },
    {
      "constant": true,
      "inputs": [],
      "name": "productId",
      "outputs": [
        {
          "name": "",
          "type": "uint256"
        }
      ],
      "payable": false,
      "stateMutability": "view",
      "type": "function"
    },
    {
      "constant": true,
      "inputs": [],
      "name": "fundsDisbursed",
      "outputs": [
        {
          "name": "",
          "type": "bool"
        }
      ],
      "payable": false,
      "stateMutability": "view",
      "type": "function"
    },
    {
      "constant": true,
      "inputs": [],
      "name": "arbiter",
      "outputs": [
        {
          "name": "",
          "type": "address"
        }
      ],
      "payable": false,
      "stateMutability": "view",
      "type": "function"
    },
    {
      "inputs": [
        {
          "name": "_productId",
          "type": "uint256"
        },
        {
          "name": "_buyer",
          "type": "address"
        },
        {
          "name": "_seller",
          "type": "address"
        },
        {
          "name": "_arbiter",
          "type": "address"
        }
      ],
      "payable": true,
      "stateMutability": "payable",
      "type": "constructor"
    },
    {
      "anonymous": false,
      "inputs": [
        {
          "indexed": false,
          "name": "message",
          "type": "string"
        },
        {
          "indexed": false,
          "name": "caller",
          "type": "address"
        },
        {
          "indexed": false,
          "name": "releaseCount",
          "type": "uint256"
        },
        {
          "indexed": false,
          "name": "amount",
          "type": "uint256"
        }
      ],
      "name": "LogReleaseAmountToSeller",
      "type": "event"
    },
    {
      "anonymous": false,
      "inputs": [
        {
          "indexed": false,
          "name": "message",
          "type": "string"
        },
        {
          "indexed": false,
          "name": "caller",
          "type": "address"
        },
        {
          "indexed": false,
          "name": "refundCount",
          "type": "uint256"
        },
        {
          "indexed": false,
          "name": "amount",
          "type": "uint256"
        }
      ],
      "name": "LogRefundAmountToBuyer",
      "type": "event"
    },
    {
      "constant": true,
      "inputs": [],
      "name": "escrowDetails",
      "outputs": [
        {
          "name": "",
          "type": "address"
        },
        {
          "name": "",
          "type": "address"
        },
        {
          "name": "",
          "type": "address"
        },
        {
          "name": "",
          "type": "uint256"
        },
        {
          "name": "",
          "type": "bool"
        },
        {
          "name": "",
          "type": "uint256"
        },
        {
          "name": "",
          "type": "uint256"
        }
      ],
      "payable": false,
      "stateMutability": "view",
      "type": "function"
    },
    {
      "constant": false,
      "inputs": [
        {
          "name": "_caller",
          "type": "address"
        }
      ],
      "name": "releaseAmountToSeller",
      "outputs": [],
      "payable": false,
      "stateMutability": "nonpayable",
      "type": "function"
    },
    {
      "constant": false,
      "inputs": [
        {
          "name": "_caller",
          "type": "address"
        }
      ],
      "name": "refundAmountToBuyer",
      "outputs": [],
      "payable": false,
      "stateMutability": "nonpayable",
      "type": "function"
    },
    {
      "constant": false,
      "inputs": [
        {
          "name": "_caller",
          "type": "address"
        }
      ],
      "name": "withdraw",
      "outputs": [],
      "payable": false,
      "stateMutability": "nonpayable",
      "type": "function"
    }
  ],
  "bytecode": "0x60806040526040516080806111b28339810180604052810190808051906020019092919080519060200190929190805190602001909291908051906020019092919050505083600481905550826000806101000a81548173ffffffffffffffffffffffffffffffffffffffff021916908373ffffffffffffffffffffffffffffffffffffffff16021790555081600160006101000a81548173ffffffffffffffffffffffffffffffffffffffff021916908373ffffffffffffffffffffffffffffffffffffffff16021790555080600260006101000a81548173ffffffffffffffffffffffffffffffffffffffff021916908373ffffffffffffffffffffffffffffffffffffffff1602179055506000600b60006101000a81548160ff0219169083151502179055503460058190555033600360006101000a81548173ffffffffffffffffffffffffffffffffffffffff021916908373ffffffffffffffffffffffffffffffffffffffff1602179055505050505061102f806101836000396000f3006080604052600436106100c5576000357c0100000000000000000000000000000000000000000000000000000000900463ffffffff16806308551a53146100ca5780630bda4dbf1461012157806351cff8d91461014c57806358aad10b1461018f5780635a8d2e9d146101d25780637150d8ae146102af5780638da5cb5b14610306578063a97d1b101461035d578063aa8c217c146103a0578063b8d08db2146103cb578063c5ce3911146103f6578063d1a52e3014610421578063fe25e00a14610450575b600080fd5b3480156100d657600080fd5b506100df6104a7565b604051808273ffffffffffffffffffffffffffffffffffffffff1673ffffffffffffffffffffffffffffffffffffffff16815260200191505060405180910390f35b34801561012d57600080fd5b506101366104cd565b6040518082815260200191505060405180910390f35b34801561015857600080fd5b5061018d600480360381019080803573ffffffffffffffffffffffffffffffffffffffff1690602001909291905050506104d3565b005b34801561019b57600080fd5b506101d0600480360381019080803573ffffffffffffffffffffffffffffffffffffffff169060200190929190505050610672565b005b3480156101de57600080fd5b506101e7610a84565b604051808873ffffffffffffffffffffffffffffffffffffffff1673ffffffffffffffffffffffffffffffffffffffff1681526020018773ffffffffffffffffffffffffffffffffffffffff1673ffffffffffffffffffffffffffffffffffffffff1681526020018673ffffffffffffffffffffffffffffffffffffffff1673ffffffffffffffffffffffffffffffffffffffff1681526020018581526020018415151515815260200183815260200182815260200197505050505050505060405180910390f35b3480156102bb57600080fd5b506102c4610b3c565b604051808273ffffffffffffffffffffffffffffffffffffffff1673ffffffffffffffffffffffffffffffffffffffff16815260200191505060405180910390f35b34801561031257600080fd5b5061031b610b61565b604051808273ffffffffffffffffffffffffffffffffffffffff1673ffffffffffffffffffffffffffffffffffffffff16815260200191505060405180910390f35b34801561036957600080fd5b5061039e600480360381019080803573ffffffffffffffffffffffffffffffffffffffff169060200190929190505050610b87565b005b3480156103ac57600080fd5b506103b5610f97565b6040518082815260200191505060405180910390f35b3480156103d757600080fd5b506103e0610f9d565b6040518082815260200191505060405180910390f35b34801561040257600080fd5b5061040b610fa3565b6040518082815260200191505060405180910390f35b34801561042d57600080fd5b50610436610fa9565b604051808215151515815260200191505060405180910390f35b34801561045c57600080fd5b50610465610fbc565b604051808273ffffffffffffffffffffffffffffffffffffffff1673ffffffffffffffffffffffffffffffffffffffff16815260200191505060405180910390f35b600160009054906101000a900473ffffffffffffffffffffffffffffffffffffffff1681565b60075481565b600080600a60008473ffffffffffffffffffffffffffffffffffffffff1673ffffffffffffffffffffffffffffffffffffffff1681526020019081526020016000205411151561052257600080fd5b600360009054906101000a900473ffffffffffffffffffffffffffffffffffffffff1673ffffffffffffffffffffffffffffffffffffffff163373ffffffffffffffffffffffffffffffffffffffff1614151561057e57600080fd5b60011515600b60009054906101000a900460ff1615151415156105a057600080fd5b600a60008373ffffffffffffffffffffffffffffffffffffffff1673ffffffffffffffffffffffffffffffffffffffff1681526020019081526020016000205490506000600a60008473ffffffffffffffffffffffffffffffffffffffff1673ffffffffffffffffffffffffffffffffffffffff168152602001908152602001600020819055508173ffffffffffffffffffffffffffffffffffffffff166108fc829081150290604051600060405180830381858888f1935050505015801561066d573d6000803e3d6000fd5b505050565b60001515600b60009054906101000a900460ff16151514151561069457600080fd5b600360009054906101000a900473ffffffffffffffffffffffffffffffffffffffff1673ffffffffffffffffffffffffffffffffffffffff163373ffffffffffffffffffffffffffffffffffffffff161415156106f057600080fd5b6000809054906101000a900473ffffffffffffffffffffffffffffffffffffffff1673ffffffffffffffffffffffffffffffffffffffff168173ffffffffffffffffffffffffffffffffffffffff1614806107985750600160009054906101000a900473ffffffffffffffffffffffffffffffffffffffff1673ffffffffffffffffffffffffffffffffffffffff168173ffffffffffffffffffffffffffffffffffffffff16145b806107f05750600260009054906101000a900473ffffffffffffffffffffffffffffffffffffffff1673ffffffffffffffffffffffffffffffffffffffff168173ffffffffffffffffffffffffffffffffffffffff16145b15156107fb57600080fd5b60011515600860008373ffffffffffffffffffffffffffffffffffffffff1673ffffffffffffffffffffffffffffffffffffffff16815260200190815260200160002060009054906101000a900460ff1615151415151561085b57600080fd5b6001600860008373ffffffffffffffffffffffffffffffffffffffff1673ffffffffffffffffffffffffffffffffffffffff16815260200190815260200160002060006101000a81548160ff0219169083151502179055506108c96001600654610fe290919063ffffffff16565b600681905550600260065414156109d157610950600554600a6000600160009054906101000a900473ffffffffffffffffffffffffffffffffffffffff1673ffffffffffffffffffffffffffffffffffffffff1673ffffffffffffffffffffffffffffffffffffffff16815260200190815260200160002054610fe290919063ffffffff16565b600a6000600160009054906101000a900473ffffffffffffffffffffffffffffffffffffffff1673ffffffffffffffffffffffffffffffffffffffff1673ffffffffffffffffffffffffffffffffffffffff168152602001908152602001600020819055506001600b60006101000a81548160ff0219169083151502179055505b7f8018404367c87bd0af9086591ec01abe0965528879e8489f9ab585d08da971f28160065460055460405180806020018573ffffffffffffffffffffffffffffffffffffffff1673ffffffffffffffffffffffffffffffffffffffff168152602001848152602001838152602001828103825260198152602001807f416d6f756e742072656c656173656420746f2053656c6c65720000000000000081525060200194505050505060405180910390a150565b60008060008060008060008060009054906101000a900473ffffffffffffffffffffffffffffffffffffffff16600160009054906101000a900473ffffffffffffffffffffffffffffffffffffffff16600260009054906101000a900473ffffffffffffffffffffffffffffffffffffffff163073ffffffffffffffffffffffffffffffffffffffff1631600b60009054906101000a900460ff16600654600754965096509650965096509650965090919293949596565b6000809054906101000a900473ffffffffffffffffffffffffffffffffffffffff1681565b600360009054906101000a900473ffffffffffffffffffffffffffffffffffffffff1681565b60001515600b60009054906101000a900460ff161515141515610ba957600080fd5b600360009054906101000a900473ffffffffffffffffffffffffffffffffffffffff1673ffffffffffffffffffffffffffffffffffffffff163373ffffffffffffffffffffffffffffffffffffffff16141515610c0557600080fd5b6000809054906101000a900473ffffffffffffffffffffffffffffffffffffffff1673ffffffffffffffffffffffffffffffffffffffff168173ffffffffffffffffffffffffffffffffffffffff161480610cad5750600160009054906101000a900473ffffffffffffffffffffffffffffffffffffffff1673ffffffffffffffffffffffffffffffffffffffff168173ffffffffffffffffffffffffffffffffffffffff16145b80610d055750600260009054906101000a900473ffffffffffffffffffffffffffffffffffffffff1673ffffffffffffffffffffffffffffffffffffffff168173ffffffffffffffffffffffffffffffffffffffff16145b1515610d1057600080fd5b60011515600960008373ffffffffffffffffffffffffffffffffffffffff1673ffffffffffffffffffffffffffffffffffffffff16815260200190815260200160002060009054906101000a900460ff16151514151515610d7057600080fd5b6001600960008373ffffffffffffffffffffffffffffffffffffffff1673ffffffffffffffffffffffffffffffffffffffff16815260200190815260200160002060006101000a81548160ff021916908315150217905550610dde6001600754610fe290919063ffffffff16565b60078190555060026007541415610ee457610e64600554600a60008060009054906101000a900473ffffffffffffffffffffffffffffffffffffffff1673ffffffffffffffffffffffffffffffffffffffff1673ffffffffffffffffffffffffffffffffffffffff16815260200190815260200160002054610fe290919063ffffffff16565b600a60008060009054906101000a900473ffffffffffffffffffffffffffffffffffffffff1673ffffffffffffffffffffffffffffffffffffffff1673ffffffffffffffffffffffffffffffffffffffff168152602001908152602001600020819055506001600b60006101000a81548160ff0219169083151502179055505b7f4d6b0c80dcb6b5617d0336e39102710ec6a6475074e9787e0024d5170e3c95c88160075460055460405180806020018573ffffffffffffffffffffffffffffffffffffffff1673ffffffffffffffffffffffffffffffffffffffff168152602001848152602001838152602001828103825260188152602001807f416d6f756e7420726566756e64656420746f204275796572000000000000000081525060200194505050505060405180910390a150565b60055481565b60065481565b60045481565b600b60009054906101000a900460ff1681565b600260009054906101000a900473ffffffffffffffffffffffffffffffffffffffff1681565b6000808284019050838110151515610ff957600080fd5b80915050929150505600a165627a7a723058207905c01be97b050b898154bc050aa24ce4c16a4351ede4f3f9e8212aea31360d0029",
  "source": "pragma solidity ^0.4.24;\n\nimport \"./zeppelin/SafeMath.sol\";\n\n\n/** @title Escrow Contract - used to control money release on a market. */\ncontract Escrow  {\n    \n    using SafeMath for uint256;\n\n    address public buyer;\n    address public seller;\n    address public arbiter;\n    address public owner;\n\n    uint public productId;\n    uint public amount;   // price per product\n    uint public releaseCount;\n    uint public refundCount;\n\n    mapping(address => bool) releaseAmount;\n    mapping(address => bool) refundAmount;\n    mapping(address => uint) pendingWithdraws;\n\n    bool public fundsDisbursed;\n    \n    \n    event LogReleaseAmountToSeller(string message, address caller, uint releaseCount, uint amount);\n    event LogRefundAmountToBuyer(string message, address caller, uint refundCount, uint amount);\n    \n    \n    constructor (\n        uint _productId,\n        address _buyer,\n        address _seller,\n        address _arbiter\n    ) \n        public \n        payable\n    {\n        productId = _productId;\n        buyer = _buyer;\n        seller = _seller;\n        arbiter = _arbiter;\n        fundsDisbursed = false;\n        amount = msg.value;\n        owner = msg.sender;\n    }\n    \n    \n    function escrowDetails() public view returns (address, address, address, uint, bool, uint, uint) {\n        return (buyer, seller, arbiter, address(this).balance, fundsDisbursed, releaseCount, refundCount);\n    }\n    \n    function releaseAmountToSeller(address _caller) public {\n        require(fundsDisbursed == false);\n        require(msg.sender == owner);\n        require(_caller == buyer || _caller == seller || _caller == arbiter);\n        require(releaseAmount[_caller] != true);\n\n        releaseAmount[_caller] = true;\n        releaseCount = releaseCount.add(1);\n        \n        // two parties have participated of the process, so the money can be released\n        if (releaseCount == 2) {\n            pendingWithdraws[seller] = pendingWithdraws[seller].add(amount);\n            // seller.transfer(amount);\n            fundsDisbursed = true;\n        }\n        \n        emit LogReleaseAmountToSeller(\"Amount released to Seller\", _caller, releaseCount, amount);\n    }\n    \n    \n    function refundAmountToBuyer(address _caller) public {\n        require(fundsDisbursed == false);\n        require(msg.sender == owner);\n        require(_caller == buyer || _caller == seller || _caller == arbiter);\n        require(refundAmount[_caller] != true);\n\n        refundAmount[_caller] = true;\n        refundCount = refundCount.add(1);\n\n        // two parties have participated of the process, so the money can be released\n        if (refundCount == 2) {\n            pendingWithdraws[buyer] = pendingWithdraws[buyer].add(amount);\n            // buyer.transfer(amount);\n            fundsDisbursed = true;\n        }\n        \n        emit LogRefundAmountToBuyer(\"Amount refunded to Buyer\", _caller, refundCount, amount);\n    }\n\n    /** @dev user effectivelly request withdraw\n     */\n    function withdraw(address _caller) public \n    {\n        require(pendingWithdraws[_caller] > 0);\n        require(msg.sender == owner);\n        require(fundsDisbursed == true);\n\n        uint pendingAmount = pendingWithdraws[_caller];\n        pendingWithdraws[_caller] = 0;\n        _caller.transfer(pendingAmount);\n    }\n\n\n}",
  "sourcePath": "/Users/rafaeldias/dev/workspaceSolidity/markEth/contracts/Escrow.sol",
  "compiler": {
    "name": "solc",
    "version": "0.4.24+commit.e67f0147.Emscripten.clang"
  },
  "schemaVersion": "2.0.1",
  "updatedAt": "2018-09-04T15:57:49.215Z"
}