{
  "contractName": "Escrow",
  "abi": [
    {
      "constant": true,
      "inputs": [],
      "name": "seller",
      "outputs": [
        {
          "name": "",
          "type": "address"
        }
      ],
      "payable": false,
      "stateMutability": "view",
      "type": "function"
    },
    {
      "constant": true,
      "inputs": [],
      "name": "refundCount",
      "outputs": [
        {
          "name": "",
          "type": "uint256"
        }
      ],
      "payable": false,
      "stateMutability": "view",
      "type": "function"
    },
    {
      "constant": true,
      "inputs": [],
      "name": "buyer",
      "outputs": [
        {
          "name": "",
          "type": "address"
        }
      ],
      "payable": false,
      "stateMutability": "view",
      "type": "function"
    },
    {
      "constant": true,
      "inputs": [],
      "name": "owner",
      "outputs": [
        {
          "name": "",
          "type": "address"
        }
      ],
      "payable": false,
      "stateMutability": "view",
      "type": "function"
    },
    {
      "constant": true,
      "inputs": [],
      "name": "amount",
      "outputs": [
        {
          "name": "",
          "type": "uint256"
        }
      ],
      "payable": false,
      "stateMutability": "view",
      "type": "function"
    },
    {
      "constant": true,
      "inputs": [],
      "name": "releaseCount",
      "outputs": [
        {
          "name": "",
          "type": "uint256"
        }
      ],
      "payable": false,
      "stateMutability": "view",
      "type": "function"
    },
    {
      "constant": true,
      "inputs": [],
      "name": "productId",
      "outputs": [
        {
          "name": "",
          "type": "uint256"
        }
      ],
      "payable": false,
      "stateMutability": "view",
      "type": "function"
    },
    {
      "constant": true,
      "inputs": [],
      "name": "fundsDisbursed",
      "outputs": [
        {
          "name": "",
          "type": "bool"
        }
      ],
      "payable": false,
      "stateMutability": "view",
      "type": "function"
    },
    {
      "constant": true,
      "inputs": [],
      "name": "arbiter",
      "outputs": [
        {
          "name": "",
          "type": "address"
        }
      ],
      "payable": false,
      "stateMutability": "view",
      "type": "function"
    },
    {
      "inputs": [
        {
          "name": "_productId",
          "type": "uint256"
        },
        {
          "name": "_buyer",
          "type": "address"
        },
        {
          "name": "_seller",
          "type": "address"
        },
        {
          "name": "_arbiter",
          "type": "address"
        }
      ],
      "payable": true,
      "stateMutability": "payable",
      "type": "constructor"
    },
    {
      "anonymous": false,
      "inputs": [
        {
          "indexed": false,
          "name": "message",
          "type": "string"
        },
        {
          "indexed": false,
          "name": "caller",
          "type": "address"
        },
        {
          "indexed": false,
          "name": "releaseCount",
          "type": "uint256"
        },
        {
          "indexed": false,
          "name": "amount",
          "type": "uint256"
        }
      ],
      "name": "LogReleaseAmountToSeller",
      "type": "event"
    },
    {
      "anonymous": false,
      "inputs": [
        {
          "indexed": false,
          "name": "message",
          "type": "string"
        },
        {
          "indexed": false,
          "name": "caller",
          "type": "address"
        },
        {
          "indexed": false,
          "name": "refundCount",
          "type": "uint256"
        },
        {
          "indexed": false,
          "name": "amount",
          "type": "uint256"
        }
      ],
      "name": "LogRefundAmountToBuyer",
      "type": "event"
    },
    {
      "constant": true,
      "inputs": [],
      "name": "escrowDetails",
      "outputs": [
        {
          "name": "",
          "type": "address"
        },
        {
          "name": "",
          "type": "address"
        },
        {
          "name": "",
          "type": "address"
        },
        {
          "name": "",
          "type": "uint256"
        },
        {
          "name": "",
          "type": "bool"
        },
        {
          "name": "",
          "type": "uint256"
        },
        {
          "name": "",
          "type": "uint256"
        }
      ],
      "payable": false,
      "stateMutability": "view",
      "type": "function"
    },
    {
      "constant": false,
      "inputs": [
        {
          "name": "_caller",
          "type": "address"
        }
      ],
      "name": "releaseAmountToSeller",
      "outputs": [],
      "payable": false,
      "stateMutability": "nonpayable",
      "type": "function"
    },
    {
      "constant": false,
      "inputs": [
        {
          "name": "_caller",
          "type": "address"
        }
      ],
      "name": "refundAmountToBuyer",
      "outputs": [],
      "payable": false,
      "stateMutability": "nonpayable",
      "type": "function"
    },
    {
      "constant": false,
      "inputs": [
        {
          "name": "_caller",
          "type": "address"
        }
      ],
      "name": "withdraw",
      "outputs": [],
      "payable": false,
      "stateMutability": "nonpayable",
      "type": "function"
    }
  ],
  "bytecode": "0x60806040526040516080806111a28339810180604052810190808051906020019092919080519060200190929190805190602001909291908051906020019092919050505083600481905550826000806101000a81548173ffffffffffffffffffffffffffffffffffffffff021916908373ffffffffffffffffffffffffffffffffffffffff16021790555081600160006101000a81548173ffffffffffffffffffffffffffffffffffffffff021916908373ffffffffffffffffffffffffffffffffffffffff16021790555080600260006101000a81548173ffffffffffffffffffffffffffffffffffffffff021916908373ffffffffffffffffffffffffffffffffffffffff1602179055506000600b60006101000a81548160ff0219169083151502179055503460058190555033600360006101000a81548173ffffffffffffffffffffffffffffffffffffffff021916908373ffffffffffffffffffffffffffffffffffffffff1602179055505050505061101f806101836000396000f3006080604052600436106100c5576000357c0100000000000000000000000000000000000000000000000000000000900463ffffffff16806308551a53146100ca5780630bda4dbf1461012157806351cff8d91461014c57806358aad10b1461018f5780635a8d2e9d146101d25780637150d8ae146102af5780638da5cb5b14610306578063a97d1b101461035d578063aa8c217c146103a0578063b8d08db2146103cb578063c5ce3911146103f6578063d1a52e3014610421578063fe25e00a14610450575b600080fd5b3480156100d657600080fd5b506100df6104a7565b604051808273ffffffffffffffffffffffffffffffffffffffff1673ffffffffffffffffffffffffffffffffffffffff16815260200191505060405180910390f35b34801561012d57600080fd5b506101366104cd565b6040518082815260200191505060405180910390f35b34801561015857600080fd5b5061018d600480360381019080803573ffffffffffffffffffffffffffffffffffffffff1690602001909291905050506104d3565b005b34801561019b57600080fd5b506101d0600480360381019080803573ffffffffffffffffffffffffffffffffffffffff169060200190929190505050610672565b005b3480156101de57600080fd5b506101e7610a7c565b604051808873ffffffffffffffffffffffffffffffffffffffff1673ffffffffffffffffffffffffffffffffffffffff1681526020018773ffffffffffffffffffffffffffffffffffffffff1673ffffffffffffffffffffffffffffffffffffffff1681526020018673ffffffffffffffffffffffffffffffffffffffff1673ffffffffffffffffffffffffffffffffffffffff1681526020018581526020018415151515815260200183815260200182815260200197505050505050505060405180910390f35b3480156102bb57600080fd5b506102c4610b34565b604051808273ffffffffffffffffffffffffffffffffffffffff1673ffffffffffffffffffffffffffffffffffffffff16815260200191505060405180910390f35b34801561031257600080fd5b5061031b610b59565b604051808273ffffffffffffffffffffffffffffffffffffffff1673ffffffffffffffffffffffffffffffffffffffff16815260200191505060405180910390f35b34801561036957600080fd5b5061039e600480360381019080803573ffffffffffffffffffffffffffffffffffffffff169060200190929190505050610b7f565b005b3480156103ac57600080fd5b506103b5610f87565b6040518082815260200191505060405180910390f35b3480156103d757600080fd5b506103e0610f8d565b6040518082815260200191505060405180910390f35b34801561040257600080fd5b5061040b610f93565b6040518082815260200191505060405180910390f35b34801561042d57600080fd5b50610436610f99565b604051808215151515815260200191505060405180910390f35b34801561045c57600080fd5b50610465610fac565b604051808273ffffffffffffffffffffffffffffffffffffffff1673ffffffffffffffffffffffffffffffffffffffff16815260200191505060405180910390f35b600160009054906101000a900473ffffffffffffffffffffffffffffffffffffffff1681565b60075481565b600080600a60008473ffffffffffffffffffffffffffffffffffffffff1673ffffffffffffffffffffffffffffffffffffffff1681526020019081526020016000205411151561052257600080fd5b600360009054906101000a900473ffffffffffffffffffffffffffffffffffffffff1673ffffffffffffffffffffffffffffffffffffffff163373ffffffffffffffffffffffffffffffffffffffff1614151561057e57600080fd5b60011515600b60009054906101000a900460ff1615151415156105a057600080fd5b600a60008373ffffffffffffffffffffffffffffffffffffffff1673ffffffffffffffffffffffffffffffffffffffff1681526020019081526020016000205490506000600a60008473ffffffffffffffffffffffffffffffffffffffff1673ffffffffffffffffffffffffffffffffffffffff168152602001908152602001600020819055508173ffffffffffffffffffffffffffffffffffffffff166108fc829081150290604051600060405180830381858888f1935050505015801561066d573d6000803e3d6000fd5b505050565b60001515600b60009054906101000a900460ff16151514151561069457600080fd5b600360009054906101000a900473ffffffffffffffffffffffffffffffffffffffff1673ffffffffffffffffffffffffffffffffffffffff163373ffffffffffffffffffffffffffffffffffffffff161415156106f057600080fd5b6000809054906101000a900473ffffffffffffffffffffffffffffffffffffffff1673ffffffffffffffffffffffffffffffffffffffff168173ffffffffffffffffffffffffffffffffffffffff1614806107985750600160009054906101000a900473ffffffffffffffffffffffffffffffffffffffff1673ffffffffffffffffffffffffffffffffffffffff168173ffffffffffffffffffffffffffffffffffffffff16145b806107f05750600260009054906101000a900473ffffffffffffffffffffffffffffffffffffffff1673ffffffffffffffffffffffffffffffffffffffff168173ffffffffffffffffffffffffffffffffffffffff16145b801561084d575060011515600860008373ffffffffffffffffffffffffffffffffffffffff1673ffffffffffffffffffffffffffffffffffffffff16815260200190815260200160002060009054906101000a900460ff16151514155b156108c7576001600860008373ffffffffffffffffffffffffffffffffffffffff1673ffffffffffffffffffffffffffffffffffffffff16815260200190815260200160002060006101000a81548160ff0219169083151502179055506108c06001600654610fd290919063ffffffff16565b6006819055505b600260065414156109c957610948600554600a6000600160009054906101000a900473ffffffffffffffffffffffffffffffffffffffff1673ffffffffffffffffffffffffffffffffffffffff1673ffffffffffffffffffffffffffffffffffffffff16815260200190815260200160002054610fd290919063ffffffff16565b600a6000600160009054906101000a900473ffffffffffffffffffffffffffffffffffffffff1673ffffffffffffffffffffffffffffffffffffffff1673ffffffffffffffffffffffffffffffffffffffff168152602001908152602001600020819055506001600b60006101000a81548160ff0219169083151502179055505b7f8018404367c87bd0af9086591ec01abe0965528879e8489f9ab585d08da971f28160065460055460405180806020018573ffffffffffffffffffffffffffffffffffffffff1673ffffffffffffffffffffffffffffffffffffffff168152602001848152602001838152602001828103825260198152602001807f416d6f756e742072656c656173656420746f2053656c6c65720000000000000081525060200194505050505060405180910390a150565b60008060008060008060008060009054906101000a900473ffffffffffffffffffffffffffffffffffffffff16600160009054906101000a900473ffffffffffffffffffffffffffffffffffffffff16600260009054906101000a900473ffffffffffffffffffffffffffffffffffffffff163073ffffffffffffffffffffffffffffffffffffffff1631600b60009054906101000a900460ff16600654600754965096509650965096509650965090919293949596565b6000809054906101000a900473ffffffffffffffffffffffffffffffffffffffff1681565b600360009054906101000a900473ffffffffffffffffffffffffffffffffffffffff1681565b60001515600b60009054906101000a900460ff161515141515610ba157600080fd5b600360009054906101000a900473ffffffffffffffffffffffffffffffffffffffff1673ffffffffffffffffffffffffffffffffffffffff163373ffffffffffffffffffffffffffffffffffffffff16141515610bfd57600080fd5b6000809054906101000a900473ffffffffffffffffffffffffffffffffffffffff1673ffffffffffffffffffffffffffffffffffffffff168173ffffffffffffffffffffffffffffffffffffffff161480610ca55750600160009054906101000a900473ffffffffffffffffffffffffffffffffffffffff1673ffffffffffffffffffffffffffffffffffffffff168173ffffffffffffffffffffffffffffffffffffffff16145b80610cfd5750600260009054906101000a900473ffffffffffffffffffffffffffffffffffffffff1673ffffffffffffffffffffffffffffffffffffffff168173ffffffffffffffffffffffffffffffffffffffff16145b8015610d5a575060011515600860008373ffffffffffffffffffffffffffffffffffffffff1673ffffffffffffffffffffffffffffffffffffffff16815260200190815260200160002060009054906101000a900460ff16151514155b15610dd4576001600960008373ffffffffffffffffffffffffffffffffffffffff1673ffffffffffffffffffffffffffffffffffffffff16815260200190815260200160002060006101000a81548160ff021916908315150217905550610dcd6001600754610fd290919063ffffffff16565b6007819055505b60026007541415610ed457610e54600554600a60008060009054906101000a900473ffffffffffffffffffffffffffffffffffffffff1673ffffffffffffffffffffffffffffffffffffffff1673ffffffffffffffffffffffffffffffffffffffff16815260200190815260200160002054610fd290919063ffffffff16565b600a60008060009054906101000a900473ffffffffffffffffffffffffffffffffffffffff1673ffffffffffffffffffffffffffffffffffffffff1673ffffffffffffffffffffffffffffffffffffffff168152602001908152602001600020819055506001600b60006101000a81548160ff0219169083151502179055505b7f4d6b0c80dcb6b5617d0336e39102710ec6a6475074e9787e0024d5170e3c95c88160075460055460405180806020018573ffffffffffffffffffffffffffffffffffffffff1673ffffffffffffffffffffffffffffffffffffffff168152602001848152602001838152602001828103825260188152602001807f416d6f756e7420726566756e64656420746f204275796572000000000000000081525060200194505050505060405180910390a150565b60055481565b60065481565b60045481565b600b60009054906101000a900460ff1681565b600260009054906101000a900473ffffffffffffffffffffffffffffffffffffffff1681565b6000808284019050838110151515610fe957600080fd5b80915050929150505600a165627a7a72305820ff760f08bd7c998f09337c40610041ca5d3cd7f361c9489ef20fc71c56baed760029",
  "source": "pragma solidity ^0.4.24;\r\n\r\nimport \"./zeppelin/SafeMath.sol\";\r\n\r\n\r\n/** @title Escrow Contract - used to control money release on a market. */\r\ncontract Escrow  {\r\n    \r\n    using SafeMath for uint256;\r\n\r\n    address public buyer;\r\n    address public seller;\r\n    address public arbiter;\r\n    address public owner;\r\n\r\n    uint public productId;\r\n    uint public amount;   // price per product\r\n    uint public releaseCount;\r\n    uint public refundCount;\r\n\r\n    mapping(address => bool) releaseAmount;\r\n    mapping(address => bool) refundAmount;\r\n    mapping(address => uint) pendingWithdraws;\r\n\r\n    bool public fundsDisbursed;\r\n    \r\n    \r\n    event LogReleaseAmountToSeller(string message, address caller, uint releaseCount, uint amount);\r\n    event LogRefundAmountToBuyer(string message, address caller, uint refundCount, uint amount);\r\n    \r\n    \r\n    constructor (\r\n        uint _productId,\r\n        address _buyer,\r\n        address _seller,\r\n        address _arbiter\r\n    ) \r\n        public \r\n        payable\r\n    {\r\n        productId = _productId;\r\n        buyer = _buyer;\r\n        seller = _seller;\r\n        arbiter = _arbiter;\r\n        fundsDisbursed = false;\r\n        amount = msg.value;\r\n        owner = msg.sender;\r\n    }\r\n    \r\n    \r\n    function escrowDetails() public view returns (address, address, address, uint, bool, uint, uint) {\r\n        return (buyer, seller, arbiter, this.balance, fundsDisbursed, releaseCount, refundCount);\r\n        \r\n    }\r\n    \r\n    function releaseAmountToSeller(address _caller) public {\r\n        require(fundsDisbursed == false);\r\n        require(msg.sender == owner);\r\n        if ((_caller == buyer || _caller == seller || _caller == arbiter) && releaseAmount[_caller] != true) {\r\n            releaseAmount[_caller] = true;\r\n            releaseCount = releaseCount.add(1);\r\n        }\r\n        \r\n        // two parties have participated of the process, so the money can be released\r\n        if (releaseCount == 2) {\r\n            pendingWithdraws[seller] = pendingWithdraws[seller].add(amount);\r\n            // seller.transfer(amount);\r\n            fundsDisbursed = true;\r\n        }\r\n        \r\n        emit LogReleaseAmountToSeller(\"Amount released to Seller\", _caller, releaseCount, amount);\r\n    }\r\n    \r\n    \r\n    function refundAmountToBuyer(address _caller) public {\r\n        require(fundsDisbursed == false);\r\n        require(msg.sender == owner);\r\n        if ((_caller == buyer || _caller == seller || _caller == arbiter) && releaseAmount[_caller] != true) {\r\n            refundAmount[_caller] = true;\r\n            refundCount = refundCount.add(1);\r\n        }\r\n        \r\n        // two parties have participated of the process, so the money can be released\r\n        if (refundCount == 2) {\r\n            pendingWithdraws[buyer] = pendingWithdraws[buyer].add(amount);\r\n            // buyer.transfer(amount);\r\n            fundsDisbursed = true;\r\n        }\r\n        \r\n        emit LogRefundAmountToBuyer(\"Amount refunded to Buyer\", _caller, refundCount, amount);\r\n    }\r\n\r\n    /** @dev user effectivelly request withdraw\r\n     */\r\n    function withdraw(address _caller) public \r\n    {\r\n        require(pendingWithdraws[_caller] > 0);\r\n        require(msg.sender == owner);\r\n        require(fundsDisbursed == true);\r\n\r\n        uint pendingAmount = pendingWithdraws[_caller];\r\n        pendingWithdraws[_caller] = 0;\r\n        _caller.transfer(pendingAmount);\r\n    }\r\n\r\n\r\n}",
  "sourcePath": "/Users/rafael/Desenv/workspaceSolidity/marketh/contracts/Escrow.sol",
  "compiler": {
    "name": "solc",
    "version": "0.4.24+commit.e67f0147.Emscripten.clang"
  },
  "schemaVersion": "2.0.1",
  "updatedAt": "2018-08-28T03:45:57.820Z"
}